Component: ARM Compiler 5.05 update 1 (build 106) Tool: armlink [4d0efa]

==============================================================================

Section Cross References

    main.o(i.begin) refers to oled.o(i.OLED_ShowString) for OLED_ShowString
    main.o(i.begin) refers to oled.o(i.OLED_ShowChinese) for OLED_ShowChinese
    main.o(i.begin) refers to oled.o(i.OLED_DrawSquare) for OLED_DrawSquare
    main.o(i.begin) refers to oled.o(i.OLED_DrawLine) for OLED_DrawLine
    main.o(i.begin) refers to oled.o(i.OLED_Refresh) for OLED_Refresh
    main.o(i.begin) refers to delay.o(i.delay_ms) for delay_ms
    main.o(i.begin) refers to oled.o(i.OLED_Clear) for OLED_Clear
    main.o(i.main) refers to delay.o(i.delay_init) for delay_init
    main.o(i.main) refers to exti.o(i.EXTIX_Init) for EXTIX_Init
    main.o(i.main) refers to adc.o(i.Adc_Init) for Adc_Init
    main.o(i.main) refers to timer.o(i.TIM3_PWM_Init) for TIM3_PWM_Init
    main.o(i.main) refers to oled.o(i.OLED_Init) for OLED_Init
    main.o(i.main) refers to oled.o(i.OLED_ColorTurn) for OLED_ColorTurn
    main.o(i.main) refers to oled.o(i.OLED_DisplayTurn) for OLED_DisplayTurn
    main.o(i.main) refers to oled.o(i.OLED_Clear) for OLED_Clear
    main.o(i.main) refers to oled.o(i.OLED_Refresh) for OLED_Refresh
    main.o(i.main) refers to main.o(i.begin) for begin
    main.o(i.main) refers to sbq.o(i.DrawOscillogram) for DrawOscillogram
==============================================================================

Removing Unused input sections from the image.

    Removing system_stm32f10x.o(i.SystemCoreClockUpdate), (164 bytes).
    Removing sys.o(.emb_text), (6 bytes).
    Removing sys.o(i.INTX_DISABLE), (4 bytes).
    Removing sys.o(i.INTX_ENABLE), (4 bytes).
    Removing sys.o(i.WFI_SET), (4 bytes).
    Removing usart.o(i.fputc), (28 bytes).
    Removing usart.o(i.uart_init), (160 bytes).
    Removing core_cm3.o(.emb_text), (32 bytes).
    Removing misc.o(i.NVIC_PriorityGroupConfig), (20 bytes).
    Removing misc.o(i.NVIC_SetVectorTable), (20 bytes).
    Removing misc.o(i.NVIC_SystemLPConfig), (32 bytes).
    Removing stm32f10x_adc.o(i.ADC_AnalogWatchdogCmd), (20 bytes).
    Removing stm32f10x_adc.o(i.ADC_AnalogWatchdogSingleChannelConfig), (16 bytes).
    Removing stm32f10x_adc.o(i.ADC_AnalogWatchdogThresholdsConfig), (6 bytes).
    Removing stm32f10x_adc.o(i.ADC_AutoInjectedConvCmd), (22 bytes).
    Removing stm32f10x_adc.o(i.ADC_ClearFlag), (6 bytes).
    Removing stm32f10x_adc.o(i.ADC_ClearITPendingBit), (10 bytes).
    Removing stm32f10x_adc.o(i.ADC_DMACmd), (22 bytes).
==============================================================================

Image Symbol Table

    Local Symbols

    Symbol Name                              Value     Ov Type        Size  Object(Section)

    ../clib/angel/boardlib.s                 0x00000000   Number         0  boardinit2.o ABSOLUTE
    ../clib/angel/boardlib.s                 0x00000000   Number         0  boardinit1.o ABSOLUTE
    ../clib/angel/boardlib.s                 0x00000000   Number         0  boardshut.o ABSOLUTE
    ../clib/angel/boardlib.s                 0x00000000   Number         0  boardinit3.o ABSOLUTE
    ../clib/angel/dczerorl2.s                0x00000000   Number         0  __dczerorl2.o ABSOLUTE
    ../clib/angel/handlers.s                 0x00000000   Number         0  __scatter_zi.o ABSOLUTE
    ../clib/angel/kernel.s                   0x00000000   Number         0  __rtentry.o ABSOLUTE
    ../clib/angel/kernel.s                   0x00000000   Number         0  rtexit2.o ABSOLUTE
    ../clib/angel/kernel.s                   0x00000000   Number         0  __rtentry4.o ABSOLUTE
    ../clib/angel/kernel.s                   0x00000000   Number         0  rtexit.o ABSOLUTE
    ../clib/angel/kernel.s                   0x00000000   Number         0  __rtentry2.o ABSOLUTE
    ../clib/angel/rt.s                       0x00000000   Number         0  rt_locale_intlibspace.o ABSOLUTE
    ../clib/angel/rt.s                       0x00000000   Number         0  rt_locale.o ABSOLUTE
    ../clib/angel/rt.s                       0x00000000   Number         0  rt_raise.o ABSOLUTE
    ../clib/angel/scatter.s                  0x00000000   Number         0  __scatter.o ABSOLUTE
    ../clib/angel/startup.s                  0x00000000   Number         0  __main.o ABSOLUTE
    ../clib/angel/sys.s                      0x00000000   Number         0  libspace.o ABSOLUTE
    ../clib/angel/sys.s                      0x00000000   Number         0  sys_stackheap_outer.o ABSOLUTE
    ../clib/angel/sys.s                      0x00000000   Number         0  use_no_semi_2.o ABSOLUTE
    ../clib/angel/sys.s                      0x00000000   Number         0  use_no_semi.o ABSOLUTE
    ../clib/angel/sys.s                      0x00000000   Number         0  indicate_semi.o ABSOLUTE
    ../clib/angel/sysapp.c                   0x00000000   Number         0  sys_wrch.o ABSOLUTE
    ../clib/angel/sysapp.c                   0x00000000   Number         0  sys_command.o ABSOLUTE
    ../clib/armsys.c                         0x00000000   Number         0  argv_veneer.o ABSOLUTE
    ../clib/armsys.c                         0x00000000   Number         0  argv_veneer.o ABSOLUTE
    ../clib/armsys.c                         0x00000000   Number         0  no_argv.o ABSOLUTE
    ../clib/armsys.c                         0x00000000   Number         0  _get_argv_nomalloc.o ABSOLUTE
    ../clib/bigflt.c                         0x00000000   Number         0  bigflt0.o ABSOLUTE
    ../clib/btod.s                           0x00000000   Number         0  btod.o ABSOLUTE
    ../clib/heapalloc.c                      0x00000000   Number         0  hrguard.o ABSOLUTE
    ../clib/heapaux.c                        0x00000000   Number         0  heapauxi.o ABSOLUTE
    ../clib/libinit.s                        0x00000000   Number         0  libinit.o ABSOLUTE
    ../clib/libinit.s                        0x00000000   Number         0  libshutdown.o ABSOLUTE
    ../clib/libinit.s                        0x00000000   Number         0  libinit2.o ABSOLUTE
    ../clib/libinit.s                        0x00000000   Number         0  libshutdown2.o ABSOLUTE
    ../clib/locale.s                         0x00000000   Number         0  lc_numeric_c.o ABSOLUTE
    ../clib/longlong.s                       0x00000000   Number         0  lludiv10.o ABSOLUTE
    ../clib/memcpset.s                       0x00000000   Number         0  strcmpv7m.o ABSOLUTE
    ../clib/misc.s                           0x00000000   Number         0  printf_stubs.o ABSOLUTE
    ../clib/printf.c                         0x00000000   Number         0  _printf_char_common.o ABSOLUTE
    ../clib/printf.c                         0x00000000   Number         0  _printf_fp_dec.o ABSOLUTE
    ../clib/printf.c                         0x00000000   Number         0  __printf.o ABSOLUTE
    ../clib/printf.c                         0x00000000   Number         0  _sputc.o ABSOLUTE
    ../clib/printf.c                         0x00000000   Number         0  __2sprintf.o ABSOLUTE
    ../clib/printf.c                         0x00000000   Number         0  __printf_flags.o ABSOLUTE
    ../clib/printf.c                         0x00000000   Number         0  __printf_ss.o ABSOLUTE
    ../clib/printf.c                         0x00000000   Number         0  noretval__2sprintf.o ABSOLUTE
    ../clib/printf.c                         0x00000000   Number         0  _printf_fp_infnan.o ABSOLUTE
    ../clib/printf.c                         0x00000000   Number         0  __printf_nopercent.o ABSOLUTE
    ../clib/printf.c                         0x00000000   Number         0  __printf_flags_ss.o ABSOLUTE
    ../clib/printf.c                         0x00000000   Number         0  __printf_wp.o ABSOLUTE
    ../clib/printf.c                         0x00000000   Number         0  __printf_flags_wp.o ABSOLUTE
    ../clib/printf.c                         0x00000000   Number         0  __printf_ss_wp.o ABSOLUTE
    ../clib/printf.c                         0x00000000   Number         0  __printf_flags_ss_wp.o ABSOLUTE
    ../clib/printf_percent.s                 0x00000000   Number         0  _printf_percent.o ABSOLUTE
    ../clib/printf_percent.s                 0x00000000   Number         0  _printf_f.o ABSOLUTE
    ../clib/printf_percent.s                 0x00000000   Number         0  _printf_percent_end.o ABSOLUTE
    ../clib/signal.c                         0x00000000   Number         0  defsig_abrt_inner.o ABSOLUTE
    ../clib/signal.c                         0x00000000   Number         0  defsig_segv_inner.o ABSOLUTE
    ../clib/signal.c                         0x00000000   Number         0  defsig_general.o ABSOLUTE
    ../clib/signal.c                         0x00000000   Number         0  __raise.o ABSOLUTE
    ../clib/signal.c                         0x00000000   Number         0  defsig_rtmem_inner.o ABSOLUTE
    ../clib/signal.c                         0x00000000   Number         0  defsig_exit.o ABSOLUTE
    ../clib/signal.c                         0x00000000   Number         0  defsig_rtmem_formal.o ABSOLUTE
    ../clib/signal.c                         0x00000000   Number         0  defsig_rtmem_outer.o ABSOLUTE
    ../clib/signal.c                         0x00000000   Number         0  defsig_other.o ABSOLUTE
    ../clib/signal.c                         0x00000000   Number         0  defsig_cppl_inner.o ABSOLUTE
    ../clib/signal.c                         0x00000000   Number         0  defsig_pvfn_inner.o ABSOLUTE
    ../clib/signal.c                         0x00000000   Number         0  defsig_stak_inner.o ABSOLUTE
    ../clib/signal.c                         0x00000000   Number         0  defsig_rtred_inner.o ABSOLUTE
    ../clib/signal.c                         0x00000000   Number         0  defsig_fpe_inner.o ABSOLUTE
    ../clib/signal.s                         0x00000000   Number         0  defsig.o ABSOLUTE
    ../clib/stdlib.c                         0x00000000   Number         0  exit.o ABSOLUTE
    ../fplib/d2f.s                           0x00000000   Number         0  d2f.o ABSOLUTE
    ../fplib/daddsub.s                       0x00000000   Number         0  daddsub_clz.o ABSOLUTE
    ../fplib/dcmpi.s                         0x00000000   Number         0  dcmpi.o ABSOLUTE
    ../fplib/ddiv.s                          0x00000000   Number         0  ddiv.o ABSOLUTE
    ../fplib/dfixu.s                         0x00000000   Number         0  dfixu.o ABSOLUTE
    ../fplib/dflt.s                          0x00000000   Number         0  dflt_clz.o ABSOLUTE
    ../fplib/dleqf.s                         0x00000000   Number         0  dleqf.o ABSOLUTE
    ../fplib/dmul.s                          0x00000000   Number         0  dmul.o ABSOLUTE
    ../fplib/dnaninf.s                       0x00000000   Number         0  dnaninf.o ABSOLUTE
    ../fplib/dretinf.s                       0x00000000   Number         0  dretinf.o ABSOLUTE
    ../fplib/drleqf.s                        0x00000000   Number         0  drleqf.o ABSOLUTE
    ../fplib/f2d.s                           0x00000000   Number         0  f2d.o ABSOLUTE
    ../fplib/faddsub.s                       0x00000000   Number         0  faddsub_clz.o ABSOLUTE
    ../fplib/fcmpi.s                         0x00000000   Number         0  fcmpi.o ABSOLUTE
    ../fplib/fdiv.s                          0x00000000   Number         0  fdiv.o ABSOLUTE
    ../fplib/ffixu.s                         0x00000000   Number         0  ffixu.o ABSOLUTE
    ../fplib/fflt.s                          0x00000000   Number         0  fflt_clz.o ABSOLUTE
    ../fplib/fleqf.s                         0x00000000   Number         0  fleqf.o ABSOLUTE
    ../fplib/fmul.s                          0x00000000   Number         0  fmul.o ABSOLUTE
    ../fplib/fnaninf.s                       0x00000000   Number         0  fnaninf.o ABSOLUTE
    ../fplib/fpinit.s                        0x00000000   Number         0  fpinit.o ABSOLUTE
    ../fplib/fretinf.s                       0x00000000   Number         0  fretinf.o ABSOLUTE
    ../fplib/frleqf.s                        0x00000000   Number         0  frleqf.o ABSOLUTE
    ../fplib/istatus.s                       0x00000000   Number         0  istatus.o ABSOLUTE
    ../fplib/printf1.s                       0x00000000   Number         0  printf1.o ABSOLUTE
    ../fplib/usenofp.s                       0x00000000   Number         0  usenofp.o ABSOLUTE
    ../mathlib/fpclassify.c                  0x00000000   Number         0  fpclassify.o ABSOLUTE
    ..\CORE\core_cm3.c                       0x00000000   Number         0  core_cm3.o ABSOLUTE
    ..\CORE\startup_stm32f10x_hd.s           0x00000000   Number         0  startup_stm32f10x_hd.o ABSOLUTE
    ..\HARDWARE\ADC\adc.c                    0x00000000   Number         0  adc.o ABSOLUTE
    ..\HARDWARE\EXTI\exti.c                  0x00000000   Number         0  exti.o ABSOLUTE
    ..\HARDWARE\KEY\key.c                    0x00000000   Number         0  key.o ABSOLUTE
    ..\HARDWARE\OLED\oled.c                  0x00000000   Number         0  oled.o ABSOLUTE
    ..\HARDWARE\SBQ\SBQ.c                    0x00000000   Number         0  sbq.o ABSOLUTE
    ..\HARDWARE\TIMER\timer.c                0x00000000   Number         0  timer.o ABSOLUTE
    ..\STM32F10x_FWLib\src\misc.c            0x00000000   Number         0  misc.o ABSOLUTE
    ..\STM32F10x_FWLib\src\stm32f10x_adc.c   0x00000000   Number         0  stm32f10x_adc.o ABSOLUTE
    ..\STM32F10x_FWLib\src\stm32f10x_bkp.c   0x00000000   Number         0  stm32f10x_bkp.o ABSOLUTE
    ..\STM32F10x_FWLib\src\stm32f10x_can.c   0x00000000   Number         0  stm32f10x_can.o ABSOLUTE
    ..\STM32F10x_FWLib\src\stm32f10x_cec.c   0x00000000   Number         0  stm32f10x_cec.o ABSOLUTE
    ..\STM32F10x_FWLib\src\stm32f10x_crc.c   0x00000000   Number         0  stm32f10x_crc.o ABSOLUTE
    ..\STM32F10x_FWLib\src\stm32f10x_dac.c   0x00000000   Number         0  stm32f10x_dac.o ABSOLUTE
    ..\STM32F10x_FWLib\src\stm32f10x_dbgmcu.c 0x00000000   Number         0  stm32f10x_dbgmcu.o ABSOLUTE
    ..\STM32F10x_FWLib\src\stm32f10x_dma.c   0x00000000   Number         0  stm32f10x_dma.o ABSOLUTE
    ..\STM32F10x_FWLib\src\stm32f10x_exti.c  0x00000000   Number         0  stm32f10x_exti.o ABSOLUTE
    ..\STM32F10x_FWLib\src\stm32f10x_flash.c 0x00000000   Number         0  stm32f10x_flash.o ABSOLUTE
    ..\STM32F10x_FWLib\src\stm32f10x_fsmc.c  0x00000000   Number         0  stm32f10x_fsmc.o ABSOLUTE
    ..\STM32F10x_FWLib\src\stm32f10x_gpio.c  0x00000000   Number         0  stm32f10x_gpio.o ABSOLUTE
    ..\STM32F10x_FWLib\src\stm32f10x_i2c.c   0x00000000   Number         0  stm32f10x_i2c.o ABSOLUTE
    ..\STM32F10x_FWLib\src\stm32f10x_iwdg.c  0x00000000   Number         0  stm32f10x_iwdg.o ABSOLUTE
    ..\STM32F10x_FWLib\src\stm32f10x_pwr.c   0x00000000   Number         0  stm32f10x_pwr.o ABSOLUTE
    ..\STM32F10x_FWLib\src\stm32f10x_rcc.c   0x00000000   Number         0  stm32f10x_rcc.o ABSOLUTE
    ..\STM32F10x_FWLib\src\stm32f10x_rtc.c   0x00000000   Number         0  stm32f10x_rtc.o ABSOLUTE
    ..\STM32F10x_FWLib\src\stm32f10x_sdio.c  0x00000000   Number         0  stm32f10x_sdio.o ABSOLUTE
    ..\STM32F10x_FWLib\src\stm32f10x_spi.c   0x00000000   Number         0  stm32f10x_spi.o ABSOLUTE
    ..\STM32F10x_FWLib\src\stm32f10x_tim.c   0x00000000   Number         0  stm32f10x_tim.o ABSOLUTE
    ..\STM32F10x_FWLib\src\stm32f10x_usart.c 0x00000000   Number         0  stm32f10x_usart.o ABSOLUTE
    ..\STM32F10x_FWLib\src\stm32f10x_wwdg.c  0x00000000   Number         0  stm32f10x_wwdg.o ABSOLUTE
    ..\SYSTEM\delay\delay.c                  0x00000000   Number         0  delay.o ABSOLUTE
    ..\SYSTEM\sys\sys.c                      0x00000000   Number         0  sys.o ABSOLUTE
    ..\SYSTEM\usart\usart.c                  0x00000000   Number         0  usart.o ABSOLUTE
    ..\\CORE\\core_cm3.c                     0x00000000   Number         0  core_cm3.o ABSOLUTE
    ..\\SYSTEM\\sys\\sys.c                   0x00000000   Number         0  sys.o ABSOLUTE
    dc.s                                     0x00000000   Number         0  dc.o ABSOLUTE
    main.c                                   0x00000000   Number         0  main.o ABSOLUTE
    stm32f10x_it.c                           0x00000000   Number         0  stm32f10x_it.o ABSOLUTE
    system_stm32f10x.c                       0x00000000   Number         0  system_stm32f10x.o ABSOLUTE
    RESET                                    0x08000000   Section      304  startup_stm32f10x_hd.o(RESET)
    !!!main                                  0x08000130   Section        8  __main.o(!!!main)
    !!!scatter                               0x08000138   Section       52  __scatter.o(!!!scatter)
    !!dczerorl2                              0x0800016c   Section       90  __dczerorl2.o(!!dczerorl2)
    !!handler_zi                             0x080001c8   Section       28  __scatter_zi.o(!!handler_zi)
    .ARM.Collect$$_printf_percent$$00000000  0x080001e4   Section        0  _printf_percent.o(.ARM.Collect$$_printf_percent$$00000000)
    .ARM.Collect$$_printf_percent$$00000003  0x080001e4   Section        6  _printf_f.o(.ARM.Collect$$_printf_percent$$00000003)
    .ARM.Collect$$_printf_percent$$00000017  0x080001ea   Section        4  _printf_percent_end.o(.ARM.Collect$$_printf_percent$$00000017)
    .ARM.Collect$$libinit$$00000000          0x080001ee   Section        2  libinit.o(.ARM.Collect$$libinit$$00000000)
    .ARM.Collect$$libinit$$00000002          0x080001f0   Section        0  libinit2.o(.ARM.Collect$$libinit$$00000002)
    .ARM.Collect$$libinit$$00000004          0x080001f0   Section        0  libinit2.o(.ARM.Collect$$libinit$$00000004)
    .ARM.Collect$$libinit$$0000000A          0x080001f0   Section        0  libinit2.o(.ARM.Collect$$libinit$$0000000A)
    .ARM.Collect$$libinit$$0000000C          0x080001f0   Section        0  libinit2.o(.ARM.Collect$$libinit$$0000000C)
    .ARM.Collect$$libinit$$0000000E          0x080001f0   Section        0  libinit2.o(.ARM.Collect$$libinit$$0000000E)
    .ARM.Collect$$libinit$$0000000F          0x080001f0   Section        6  libinit2.o(.ARM.Collect$$libinit$$0000000F)
    .ARM.Collect$$libinit$$00000011          0x080001f6   Section        0  libinit2.o(.ARM.Collect$$libinit$$00000011)
    .ARM.Collect$$libinit$$00000013          0x080001f6   Section        0  libinit2.o(.ARM.Collect$$libinit$$00000013)
    .ARM.Collect$$libinit$$00000015          0x080001f6   Section        0  libinit2.o(.ARM.Collect$$libinit$$00000015)
    .ARM.Collect$$libinit$$00000016          0x080001f6   Section       10  libinit2.o(.ARM.Collect$$libinit$$00000016)
    .ARM.Collect$$libinit$$00000017          0x08000200   Section        0  libinit2.o(.ARM.Collect$$libinit$$00000017)
    .ARM.Collect$$libinit$$00000019          0x08000200   Section        0  libinit2.o(.ARM.Collect$$libinit$$00000019)
    .ARM.Collect$$libinit$$0000001B          0x08000200   Section        0  libinit2.o(.ARM.Collect$$libinit$$0000001B)
    .ARM.Collect$$libinit$$0000001D          0x08000200   Section        0  libinit2.o(.ARM.Collect$$libinit$$0000001D)
    .ARM.Collect$$libinit$$0000001F          0x08000200   Section        0  libinit2.o(.ARM.Collect$$libinit$$0000001F)
    .ARM.Collect$$libinit$$00000021          0x08000200   Section        0  libinit2.o(.ARM.Collect$$libinit$$00000021)
    .ARM.Collect$$libinit$$00000023          0x08000200   Section        0  libinit2.o(.ARM.Collect$$libinit$$00000023)
    .ARM.Collect$$libinit$$00000025          0x08000200   Section        0  libinit2.o(.ARM.Collect$$libinit$$00000025)
    .ARM.Collect$$libinit$$0000002C          0x08000200   Section        0  libinit2.o(.ARM.Collect$$libinit$$0000002C)
    .ARM.Collect$$libinit$$0000002E          0x08000200   Section        0  libinit2.o(.ARM.Collect$$libinit$$0000002E)
    .ARM.Collect$$libinit$$00000030          0x08000200   Section        0  libinit2.o(.ARM.Collect$$libinit$$00000030)
    .ARM.Collect$$libinit$$00000032          0x08000200   Section        0  libinit2.o(.ARM.Collect$$libinit$$00000032)
    .ARM.Collect$$libinit$$00000033          0x08000200   Section        2  libinit2.o(.ARM.Collect$$libinit$$00000033)
    .ARM.Collect$$libshutdown$$00000000      0x08000202   Section        2  libshutdown.o(.ARM.Collect$$libshutdown$$00000000)
    .ARM.Collect$$libshutdown$$00000003      0x08000204   Section        0  libshutdown2.o(.ARM.Collect$$libshutdown$$00000003)
    .ARM.Collect$$libshutdown$$00000006      0x08000204   Section        0  libshutdown2.o(.ARM.Collect$$libshutdown$$00000006)
    .ARM.Collect$$libshutdown$$00000009      0x08000204   Section        0  libshutdown2.o(.ARM.Collect$$libshutdown$$00000009)
    .ARM.Collect$$libshutdown$$0000000B      0x08000204   Section        0  libshutdown2.o(.ARM.Collect$$libshutdown$$0000000B)
    .ARM.Collect$$libshutdown$$0000000E      0x08000204   Section        0  libshutdown2.o(.ARM.Collect$$libshutdown$$0000000E)
    .ARM.Collect$$libshutdown$$0000000F      0x08000204   Section        2  libshutdown2.o(.ARM.Collect$$libshutdown$$0000000F)
    .ARM.Collect$$rtentry$$00000000          0x08000206   Section        0  __rtentry.o(.ARM.Collect$$rtentry$$00000000)
    .ARM.Collect$$rtentry$$00000002          0x08000206   Section        0  __rtentry2.o(.ARM.Collect$$rtentry$$00000002)
    .ARM.Collect$$rtentry$$00000004          0x08000206   Section        6  __rtentry4.o(.ARM.Collect$$rtentry$$00000004)
    .ARM.Collect$$rtentry$$00000009          0x0800020c   Section        0  __rtentry2.o(.ARM.Collect$$rtentry$$00000009)
    .ARM.Collect$$rtentry$$0000000A          0x0800020c   Section        4  __rtentry2.o(.ARM.Collect$$rtentry$$0000000A)
    .ARM.Collect$$rtentry$$0000000C          0x08000210   Section        0  __rtentry2.o(.ARM.Collect$$rtentry$$0000000C)
    .ARM.Collect$$rtentry$$0000000D          0x08000210   Section        8  __rtentry2.o(.ARM.Collect$$rtentry$$0000000D)
    .ARM.Collect$$rtexit$$00000000           0x08000218   Section        2  rtexit.o(.ARM.Collect$$rtexit$$00000000)
    .ARM.Collect$$rtexit$$00000002           0x0800021a   Section        0  rtexit2.o(.ARM.Collect$$rtexit$$00000002)
    .ARM.Collect$$rtexit$$00000003           0x0800021a   Section        4  rtexit2.o(.ARM.Collect$$rtexit$$00000003)
    .ARM.Collect$$rtexit$$00000004           0x0800021e   Section        6  rtexit2.o(.ARM.Collect$$rtexit$$00000004)
    .text                                    0x08000224   Section       64  startup_stm32f10x_hd.o(.text)
    .text                                    0x08000264   Section        2  use_no_semi_2.o(.text)
    .text                                    0x08000268   Section        0  noretval__2sprintf.o(.text)
    .text                                    0x08000290   Section        0  __printf_wp.o(.text)
    .text                                    0x0800039e   Section        0  heapauxi.o(.text)
    .text                                    0x080003a4   Section        2  use_no_semi.o(.text)
    .text                                    0x080003a6   Section        0  _printf_fp_dec.o(.text)
    _fp_digits                               0x080003a9   Thumb Code   428  _printf_fp_dec.o(.text)
    .text                                    0x080007c0   Section        0  _printf_char_common.o(.text)
    _printf_input_char                       0x080007c1   Thumb Code    10  _printf_char_common.o(.text)
    .text                                    0x080007f0   Section        0  _sputc.o(.text)
    .text                                    0x080007fc   Section        8  rt_locale_intlibspace.o(.text)
    .text                                    0x08000804   Section      138  lludiv10.o(.text)
    .text                                    0x08000890   Section        0  _printf_fp_infnan.o(.text)
    .text                                    0x08000910   Section        0  bigflt0.o(.text)
    .text                                    0x080009ec   Section        8  libspace.o(.text)
    .text                                    0x080009f4   Section       74  sys_stackheap_outer.o(.text)
    .text                                    0x08000a3e   Section        0  exit.o(.text)
    .text                                    0x08000a4c   Section      128  strcmpv7m.o(.text)
    CL$$btod_d2e                             0x08000acc   Section       62  btod.o(CL$$btod_d2e)
    CL$$btod_d2e_denorm_low                  0x08000b0a   Section       70  btod.o(CL$$btod_d2e_denorm_low)
    CL$$btod_d2e_norm_op1                    0x08000b50   Section       96  btod.o(CL$$btod_d2e_norm_op1)
    CL$$btod_div_common                      0x08000bb0   Section      824  btod.o(CL$$btod_div_common)
    CL$$btod_e2e                             0x08000ee8   Section      198  btod.o(CL$$btod_e2e)
    CL$$btod_ediv                            0x08000fae   Section       40  btod.o(CL$$btod_ediv)
    CL$$btod_emul                            0x08000fd6   Section       40  btod.o(CL$$btod_emul)
    CL$$btod_mult_common                     0x08000ffe   Section      580  btod.o(CL$$btod_mult_common)
    i.ADC_Cmd                                0x08001242   Section        0  stm32f10x_adc.o(i.ADC_Cmd)
    i.ADC_DeInit                             0x08001258   Section        0  stm32f10x_adc.o(i.ADC_DeInit)
    i.ADC_GetCalibrationStatus               0x080012b4   Section        0  stm32f10x_adc.o(i.ADC_GetCalibrationStatus)
    i.ADC_GetConversionValue                 0x080012c8   Section        0  stm32f10x_adc.o(i.ADC_GetConversionValue)
    i.ADC_GetFlagStatus                      0x080012d0   Section        0  stm32f10x_adc.o(i.ADC_GetFlagStatus)
    i.ADC_GetResetCalibrationStatus          0x080012e2   Section        0  stm32f10x_adc.o(i.ADC_GetResetCalibrationStatus)
    i.ADC_Init                               0x080012f8   Section        0  stm32f10x_adc.o(i.ADC_Init)
    i.ADC_RegularChannelConfig               0x08001348   Section        0  stm32f10x_adc.o(i.ADC_RegularChannelConfig)
    i.ADC_ResetCalibration                   0x08001400   Section        0  stm32f10x_adc.o(i.ADC_ResetCalibration)
    i.ADC_SoftwareStartConvCmd               0x0800140a   Section        0  stm32f10x_adc.o(i.ADC_SoftwareStartConvCmd)
    i.ADC_StartCalibration                   0x08001420   Section        0  stm32f10x_adc.o(i.ADC_StartCalibration)
    i.Adc_Init                               0x0800142c   Section        0  adc.o(i.Adc_Init)
    i.BusFault_Handler                       0x080014b8   Section        0  stm32f10x_it.o(i.BusFault_Handler)
    i.DebugMon_Handler                       0x080014bc   Section        0  stm32f10x_it.o(i.DebugMon_Handler)
    i.DrawOscillogram                        0x080014c0   Section        0  sbq.o(i.DrawOscillogram)
    i.Draw_BianKuang                         0x08001674   Section        0  sbq.o(i.Draw_BianKuang)
    i.Draw_BoXing                            0x08001708   Section        0  sbq.o(i.Draw_BoXing)
    i.Draw_CanShu                            0x080018a8   Section        0  sbq.o(i.Draw_CanShu)
    i.Draw_GeZi                              0x08001a54   Section        0  sbq.o(i.Draw_GeZi)
    i.Draw_Menu                              0x08001aa8   Section        0  sbq.o(i.Draw_Menu)
    i.EXTI9_5_IRQHandler                     0x08001ca0   Section        0  exti.o(i.EXTI9_5_IRQHandler)
    i.EXTIX_Init                             0x08001d10   Section        0  exti.o(i.EXTIX_Init)
    i.EXTI_ClearITPendingBit                 0x08001d98   Section        0  stm32f10x_exti.o(i.EXTI_ClearITPendingBit)
    i.EXTI_Init                              0x08001da4   Section        0  stm32f10x_exti.o(i.EXTI_Init)
    i.GPIO_EXTILineConfig                    0x08001e38   Section        0  stm32f10x_gpio.o(i.GPIO_EXTILineConfig)
    i.GPIO_Init                              0x08001e78   Section        0  stm32f10x_gpio.o(i.GPIO_Init)
    i.GPIO_ReadInputDataBit                  0x08001f8e   Section        0  stm32f10x_gpio.o(i.GPIO_ReadInputDataBit)
    i.GPIO_ResetBits                         0x08001fa0   Section        0  stm32f10x_gpio.o(i.GPIO_ResetBits)
    i.GPIO_SetBits                           0x08001fa4   Section        0  stm32f10x_gpio.o(i.GPIO_SetBits)
    i.Get_Adc                                0x08001fa8   Section        0  adc.o(i.Get_Adc)
    i.HardFault_Handler                      0x08001fdc   Section        0  stm32f10x_it.o(i.HardFault_Handler)
    i.KEY_Init                               0x08001fe0   Section        0  key.o(i.KEY_Init)
    i.MemManage_Handler                      0x08002008   Section        0  stm32f10x_it.o(i.MemManage_Handler)
    i.NMI_Handler                            0x0800200c   Section        0  stm32f10x_it.o(i.NMI_Handler)
    i.NVIC_Init                              0x08002010   Section        0  misc.o(i.NVIC_Init)
    i.OLED_Clear                             0x08002080   Section        0  oled.o(i.OLED_Clear)
    i.OLED_ClearPoint                        0x080020a8   Section        0  oled.o(i.OLED_ClearPoint)
    i.OLED_ColorTurn                         0x08002108   Section        0  oled.o(i.OLED_ColorTurn)
    i.OLED_DisplayTurn                       0x08002124   Section        0  oled.o(i.OLED_DisplayTurn)
    i.OLED_DrawLine                          0x08002150   Section        0  oled.o(i.OLED_DrawLine)
    i.OLED_DrawLine_1                        0x08002200   Section        0  oled.o(i.OLED_DrawLine_1)
    i.OLED_DrawPoint                         0x080022d4   Section        0  oled.o(i.OLED_DrawPoint)
    i.OLED_DrawSquare                        0x08002310   Section        0  oled.o(i.OLED_DrawSquare)
    i.OLED_Init                              0x0800234c   Section        0  oled.o(i.OLED_Init)
    i.OLED_Refresh                           0x08002494   Section        0  oled.o(i.OLED_Refresh)
    i.OLED_Refresh_12                        0x080024e0   Section        0  oled.o(i.OLED_Refresh_12)
    i.OLED_Refresh_345678                    0x0800252c   Section        0  oled.o(i.OLED_Refresh_345678)
    i.OLED_ShowChar                          0x08002578   Section        0  oled.o(i.OLED_ShowChar)
    i.OLED_ShowChinese                       0x08002674   Section        0  oled.o(i.OLED_ShowChinese)
    i.OLED_ShowString                        0x0800277c   Section        0  oled.o(i.OLED_ShowString)
    i.OLED_WR_Byte                           0x080027c0   Section        0  oled.o(i.OLED_WR_Byte)
    i.PendSV_Handler                         0x08002844   Section        0  stm32f10x_it.o(i.PendSV_Handler)
    i.RCC_ADCCLKConfig                       0x08002848   Section        0  stm32f10x_rcc.o(i.RCC_ADCCLKConfig)
    i.RCC_APB1PeriphClockCmd                 0x08002860   Section        0  stm32f10x_rcc.o(i.RCC_APB1PeriphClockCmd)
    i.RCC_APB2PeriphClockCmd                 0x08002880   Section        0  stm32f10x_rcc.o(i.RCC_APB2PeriphClockCmd)
    i.RCC_APB2PeriphResetCmd                 0x080028a0   Section        0  stm32f10x_rcc.o(i.RCC_APB2PeriphResetCmd)
    i.SVC_Handler                            0x080028c0   Section        0  stm32f10x_it.o(i.SVC_Handler)
    i.SetSysClock                            0x080028c2   Section        0  system_stm32f10x.o(i.SetSysClock)
    SetSysClock                              0x080028c3   Thumb Code     8  system_stm32f10x.o(i.SetSysClock)
    i.SetSysClockTo72                        0x080028cc   Section        0  system_stm32f10x.o(i.SetSysClockTo72)
    SetSysClockTo72                          0x080028cd   Thumb Code   214  system_stm32f10x.o(i.SetSysClockTo72)
    i.SysTick_CLKSourceConfig                0x080029ac   Section        0  misc.o(i.SysTick_CLKSourceConfig)
    i.SysTick_Handler                        0x080029d4   Section        0  stm32f10x_it.o(i.SysTick_Handler)
    i.SystemInit                             0x080029d8   Section        0  system_stm32f10x.o(i.SystemInit)
    i.TIM3_PWM_Init                          0x08002a38   Section        0  timer.o(i.TIM3_PWM_Init)
    i.TIM_Cmd                                0x08002ac4   Section        0  stm32f10x_tim.o(i.TIM_Cmd)
    i.TIM_OC1Init                            0x08002adc   Section        0  stm32f10x_tim.o(i.TIM_OC1Init)
    i.TIM_OC1PreloadConfig                   0x08002b74   Section        0  stm32f10x_tim.o(i.TIM_OC1PreloadConfig)
    i.TIM_TimeBaseInit                       0x08002b88   Section        0  stm32f10x_tim.o(i.TIM_TimeBaseInit)
    i.USART1_IRQHandler                      0x08002c2c   Section        0  usart.o(i.USART1_IRQHandler)
    i.USART_GetITStatus                      0x08002cb4   Section        0  stm32f10x_usart.o(i.USART_GetITStatus)
    i.USART_ReceiveData                      0x08002d08   Section        0  stm32f10x_usart.o(i.USART_ReceiveData)
    i.UsageFault_Handler                     0x08002d12   Section        0  stm32f10x_it.o(i.UsageFault_Handler)
    i.__ARM_fpclassify                       0x08002d16   Section        0  fpclassify.o(i.__ARM_fpclassify)
    i._is_digit                              0x08002d3e   Section        0  __printf_wp.o(i._is_digit)
    i._sys_exit                              0x08002d4c   Section        0  usart.o(i._sys_exit)
    i.begin                                  0x08002d54   Section        0  main.o(i.begin)
    i.delay_init                             0x08002dd0   Section        0  delay.o(i.delay_init)
    i.delay_ms                               0x08002e14   Section        0  delay.o(i.delay_ms)
    i.delay_us                               0x08002e60   Section        0  delay.o(i.delay_us)
    i.main                                   0x08002eac   Section        0  main.o(i.main)
    locale$$code                             0x08002f14   Section       44  lc_numeric_c.o(locale$$code)
    x$fpl$d2f                                0x08002f40   Section       98  d2f.o(x$fpl$d2f)
    x$fpl$dadd                               0x08002fa4   Section      336  daddsub_clz.o(x$fpl$dadd)
    _dadd1                                   0x08002fb5   Thumb Code     0  daddsub_clz.o(x$fpl$dadd)
    x$fpl$dcmpinf                            0x080030f4   Section       24  dcmpi.o(x$fpl$dcmpinf)
    x$fpl$ddiv                               0x0800310c   Section      688  ddiv.o(x$fpl$ddiv)
    ddiv_entry                               0x08003113   Thumb Code     0  ddiv.o(x$fpl$ddiv)
    x$fpl$dfixu                              0x080033bc   Section       90  dfixu.o(x$fpl$dfixu)
    x$fpl$dflt                               0x08003416   Section       46  dflt_clz.o(x$fpl$dflt)
    x$fpl$dleqf                              0x08003444   Section      120  dleqf.o(x$fpl$dleqf)
    x$fpl$dmul                               0x080034bc   Section      340  dmul.o(x$fpl$dmul)
    x$fpl$dnaninf                            0x08003610   Section      156  dnaninf.o(x$fpl$dnaninf)
    x$fpl$dretinf                            0x080036ac   Section       12  dretinf.o(x$fpl$dretinf)
    x$fpl$drleqf                             0x080036b8   Section      108  drleqf.o(x$fpl$drleqf)
    x$fpl$dsub                               0x08003724   Section      468  daddsub_clz.o(x$fpl$dsub)
    _dsub1                                   0x08003735   Thumb Code     0  daddsub_clz.o(x$fpl$dsub)
    x$fpl$f2d                                0x080038f8   Section       86  f2d.o(x$fpl$f2d)
    x$fpl$fadd                               0x08003950   Section      196  faddsub_clz.o(x$fpl$fadd)
    _fadd1                                   0x0800395f   Thumb Code     0  faddsub_clz.o(x$fpl$fadd)
    x$fpl$fcmpinf                            0x08003a14   Section       24  fcmpi.o(x$fpl$fcmpinf)
    x$fpl$fdiv                               0x08003a2c   Section      388  fdiv.o(x$fpl$fdiv)
    _fdiv1                                   0x08003a2d   Thumb Code     0  fdiv.o(x$fpl$fdiv)
    x$fpl$ffixu                              0x08003bb0   Section       62  ffixu.o(x$fpl$ffixu)
    x$fpl$ffltu                              0x08003bf0   Section       38  fflt_clz.o(x$fpl$ffltu)
    x$fpl$fleqf                              0x08003c18   Section      104  fleqf.o(x$fpl$fleqf)
    x$fpl$fmul                               0x08003c80   Section      258  fmul.o(x$fpl$fmul)
    x$fpl$fnaninf                            0x08003d82   Section      140  fnaninf.o(x$fpl$fnaninf)
    x$fpl$fretinf                            0x08003e0e   Section       10  fretinf.o(x$fpl$fretinf)
    x$fpl$frleqf                             0x08003e18   Section       98  frleqf.o(x$fpl$frleqf)
    x$fpl$fsub                               0x08003e7c   Section      234  faddsub_clz.o(x$fpl$fsub)
    _fsub1                                   0x08003e8b   Thumb Code     0  faddsub_clz.o(x$fpl$fsub)
    x$fpl$printf1                            0x08003f66   Section        4  printf1.o(x$fpl$printf1)
    .constdata                               0x08003f6a   Section     6080  oled.o(.constdata)
    x$fpl$usenofp                            0x08003f6a   Section        0  usenofp.o(x$fpl$usenofp)
    .constdata                               0x0800572c   Section      148  bigflt0.o(.constdata)
    tenpwrs_x                                0x0800572c   Data          60  bigflt0.o(.constdata)
    tenpwrs_i                                0x08005768   Data          64  bigflt0.o(.constdata)
    locale$$data                             0x080057e0   Section       28  lc_numeric_c.o(locale$$data)
    __lcnum_c_name                           0x080057e4   Data           2  lc_numeric_c.o(locale$$data)
    __lcnum_c_start                          0x080057ec   Data           0  lc_numeric_c.o(locale$$data)
    __lcnum_c_point                          0x080057f8   Data           0  lc_numeric_c.o(locale$$data)
    __lcnum_c_thousands                      0x080057fa   Data           0  lc_numeric_c.o(locale$$data)
    __lcnum_c_grouping                       0x080057fb   Data           0  lc_numeric_c.o(locale$$data)
    __lcnum_c_end                            0x080057fc   Data           0  lc_numeric_c.o(locale$$data)
    .data                                    0x20000000   Section       20  system_stm32f10x.o(.data)
    .data                                    0x20000014   Section        4  delay.o(.data)
    fac_us                                   0x20000014   Data           1  delay.o(.data)
    fac_ms                                   0x20000016   Data           2  delay.o(.data)
    .data                                    0x20000018   Section        6  usart.o(.data)
    .data                                    0x2000001e   Section        1  exti.o(.data)
    .data                                    0x2000001f   Section     5800  oled.o(.data)
    .data                                    0x200016c7   Section        1  sbq.o(.data)
    .bss                                     0x200016c8   Section      200  usart.o(.bss)
    .bss                                     0x20001790   Section     1152  oled.o(.bss)
    .bss                                     0x20001c10   Section      276  sbq.o(.bss)
    .bss                                     0x20001d24   Section       96  libspace.o(.bss)
    HEAP                                     0x20001d88   Section      512  startup_stm32f10x_hd.o(HEAP)
    Heap_Mem                                 0x20001d88   Data         512  startup_stm32f10x_hd.o(HEAP)
    STACK                                    0x20001f88   Section     1024  startup_stm32f10x_hd.o(STACK)
    Stack_Mem                                0x20001f88   Data        1024  startup_stm32f10x_hd.o(STACK)
    __initial_sp                             0x20002388   Data           0  startup_stm32f10x_hd.o(STACK)

    Global Symbols

    Symbol Name                              Value     Ov Type        Size  Object(Section)

    BuildAttributes$$THM_ISAv4$P$D$K$B$S$PE$A:L22UL41UL21$X:L11$S22US41US21$IEEE1$IW$USESV6$~STKCKD$USESV7$~SHL$OTIME$ROPI$IEEEJ$EBA8$UX$STANDARDLIB$REQ8$PRES8$EABIv2 0x00000000   Number         0  anon$$obj.o ABSOLUTE
    __ARM_use_no_argv                        0x00000000   Number         0  main.o ABSOLUTE
    _printf_flags                            0x00000000   Number         0  printf_stubs.o ABSOLUTE
    _printf_return_value                     0x00000000   Number         0  printf_stubs.o ABSOLUTE
    _printf_sizespec                         0x00000000   Number         0  printf_stubs.o ABSOLUTE
    _printf_widthprec                        0x00000000   Number         0  printf_stubs.o ABSOLUTE
    __ARM_exceptions_init                     - Undefined Weak Reference
    __alloca_initialize                       - Undefined Weak Reference
    __arm_preinit_                            - Undefined Weak Reference
    __cpp_initialize__aeabi_                  - Undefined Weak Reference
    __cxa_finalize                            - Undefined Weak Reference
    __sigvec_lookup                           - Undefined Weak Reference
    _atexit_init                              - Undefined Weak Reference
    _call_atexit_fns                          - Undefined Weak Reference
    _clock_init                               - Undefined Weak Reference
    _fp_trap_init                             - Undefined Weak Reference
    _fp_trap_shutdown                         - Undefined Weak Reference
    _get_lc_collate                           - Undefined Weak Reference
    _get_lc_ctype                             - Undefined Weak Reference
    _get_lc_monetary                          - Undefined Weak Reference
    _get_lc_time                              - Undefined Weak Reference
    _getenv_init                              - Undefined Weak Reference
    _handle_redirection                       - Undefined Weak Reference
    _init_alloc                               - Undefined Weak Reference
    _init_user_alloc                          - Undefined Weak Reference
    _initio                                   - Undefined Weak Reference
    _printf_post_padding                      - Undefined Weak Reference
    _printf_pre_padding                       - Undefined Weak Reference
    _rand_init                                - Undefined Weak Reference
    _signal_finish                            - Undefined Weak Reference
    _signal_init                              - Undefined Weak Reference
    _terminate_alloc                          - Undefined Weak Reference
    _terminate_user_alloc                     - Undefined Weak Reference
    _terminateio                              - Undefined Weak Reference
    __Vectors_Size                           0x00000130   Number         0  startup_stm32f10x_hd.o ABSOLUTE
    __Vectors                                0x08000000   Data           4  startup_stm32f10x_hd.o(RESET)
    __Vectors_End                            0x08000130   Data           0  startup_stm32f10x_hd.o(RESET)
    __main                                   0x08000131   Thumb Code     8  __main.o(!!!main)
    __scatterload                            0x08000139   Thumb Code     0  __scatter.o(!!!scatter)
    __scatterload_rt2                        0x08000139   Thumb Code    44  __scatter.o(!!!scatter)
    __scatterload_rt2_thumb_only             0x08000139   Thumb Code     0  __scatter.o(!!!scatter)
    __scatterload_null                       0x08000147   Thumb Code     0  __scatter.o(!!!scatter)
    __decompress                             0x0800016d   Thumb Code    90  __dczerorl2.o(!!dczerorl2)
    __decompress1                            0x0800016d   Thumb Code     0  __dczerorl2.o(!!dczerorl2)
    __scatterload_zeroinit                   0x080001c9   Thumb Code    28  __scatter_zi.o(!!handler_zi)
    _printf_f                                0x080001e5   Thumb Code     0  _printf_f.o(.ARM.Collect$$_printf_percent$$00000003)
    _printf_percent                          0x080001e5   Thumb Code     0  _printf_percent.o(.ARM.Collect$$_printf_percent$$00000000)
    _printf_percent_end                      0x080001eb   Thumb Code     0  _printf_percent_end.o(.ARM.Collect$$_printf_percent$$00000017)
    __rt_lib_init                            0x080001ef   Thumb Code     0  libinit.o(.ARM.Collect$$libinit$$00000000)
    __rt_lib_init_fp_1                       0x080001f1   Thumb Code     0  libinit2.o(.ARM.Collect$$libinit$$00000002)
    __rt_lib_init_heap_1                     0x080001f1   Thumb Code     0  libinit2.o(.ARM.Collect$$libinit$$0000000A)
    __rt_lib_init_lc_common                  0x080001f1   Thumb Code     0  libinit2.o(.ARM.Collect$$libinit$$0000000F)
    __rt_lib_init_preinit_1                  0x080001f1   Thumb Code     0  libinit2.o(.ARM.Collect$$libinit$$00000004)
    __rt_lib_init_rand_1                     0x080001f1   Thumb Code     0  libinit2.o(.ARM.Collect$$libinit$$0000000E)
    __rt_lib_init_user_alloc_1               0x080001f1   Thumb Code     0  libinit2.o(.ARM.Collect$$libinit$$0000000C)
    __rt_lib_init_lc_collate_1               0x080001f7   Thumb Code     0  libinit2.o(.ARM.Collect$$libinit$$00000011)
    __rt_lib_init_lc_ctype_1                 0x080001f7   Thumb Code     0  libinit2.o(.ARM.Collect$$libinit$$00000013)
    __rt_lib_init_lc_monetary_1              0x080001f7   Thumb Code     0  libinit2.o(.ARM.Collect$$libinit$$00000015)
    __rt_lib_init_lc_numeric_2               0x080001f7   Thumb Code     0  libinit2.o(.ARM.Collect$$libinit$$00000016)
    __rt_lib_init_alloca_1                   0x08000201   Thumb Code     0  libinit2.o(.ARM.Collect$$libinit$$0000002E)
    __rt_lib_init_argv_1                     0x08000201   Thumb Code     0  libinit2.o(.ARM.Collect$$libinit$$0000002C)
    __rt_lib_init_atexit_1                   0x08000201   Thumb Code     0  libinit2.o(.ARM.Collect$$libinit$$0000001B)
    __rt_lib_init_clock_1                    0x08000201   Thumb Code     0  libinit2.o(.ARM.Collect$$libinit$$00000021)
    __rt_lib_init_cpp_1                      0x08000201   Thumb Code     0  libinit2.o(.ARM.Collect$$libinit$$00000032)
    __rt_lib_init_exceptions_1               0x08000201   Thumb Code     0  libinit2.o(.ARM.Collect$$libinit$$00000030)
    __rt_lib_init_fp_trap_1                  0x08000201   Thumb Code     0  libinit2.o(.ARM.Collect$$libinit$$0000001F)
    __rt_lib_init_getenv_1                   0x08000201   Thumb Code     0  libinit2.o(.ARM.Collect$$libinit$$00000023)
    __rt_lib_init_lc_numeric_1               0x08000201   Thumb Code     0  libinit2.o(.ARM.Collect$$libinit$$00000017)
    __rt_lib_init_lc_time_1                  0x08000201   Thumb Code     0  libinit2.o(.ARM.Collect$$libinit$$00000019)
    __rt_lib_init_return                     0x08000201   Thumb Code     0  libinit2.o(.ARM.Collect$$libinit$$00000033)
    __rt_lib_init_signal_1                   0x08000201   Thumb Code     0  libinit2.o(.ARM.Collect$$libinit$$0000001D)
    __rt_lib_init_stdio_1                    0x08000201   Thumb Code     0  libinit2.o(.ARM.Collect$$libinit$$00000025)
    __rt_lib_shutdown                        0x08000203   Thumb Code     0  libshutdown.o(.ARM.Collect$$libshutdown$$00000000)
    __rt_lib_shutdown_fp_trap_1              0x08000205   Thumb Code     0  libshutdown2.o(.ARM.Collect$$libshutdown$$00000006)
    __rt_lib_shutdown_heap_1                 0x08000205   Thumb Code     0  libshutdown2.o(.ARM.Collect$$libshutdown$$0000000E)
    __rt_lib_shutdown_return                 0x08000205   Thumb Code     0  libshutdown2.o(.ARM.Collect$$libshutdown$$0000000F)
    __rt_lib_shutdown_signal_1               0x08000205   Thumb Code     0  libshutdown2.o(.ARM.Collect$$libshutdown$$00000009)
    __rt_lib_shutdown_stdio_1                0x08000205   Thumb Code     0  libshutdown2.o(.ARM.Collect$$libshutdown$$00000003)
    __rt_lib_shutdown_user_alloc_1           0x08000205   Thumb Code     0  libshutdown2.o(.ARM.Collect$$libshutdown$$0000000B)
    __rt_entry                               0x08000207   Thumb Code     0  __rtentry.o(.ARM.Collect$$rtentry$$00000000)
    __rt_entry_presh_1                       0x08000207   Thumb Code     0  __rtentry2.o(.ARM.Collect$$rtentry$$00000002)
    __rt_entry_sh                            0x08000207   Thumb Code     0  __rtentry4.o(.ARM.Collect$$rtentry$$00000004)
    __rt_entry_li                            0x0800020d   Thumb Code     0  __rtentry2.o(.ARM.Collect$$rtentry$$0000000A)
    __rt_entry_postsh_1                      0x0800020d   Thumb Code     0  __rtentry2.o(.ARM.Collect$$rtentry$$00000009)
    __rt_entry_main                          0x08000211   Thumb Code     0  __rtentry2.o(.ARM.Collect$$rtentry$$0000000D)
    __rt_entry_postli_1                      0x08000211   Thumb Code     0  __rtentry2.o(.ARM.Collect$$rtentry$$0000000C)
    __rt_exit                                0x08000219   Thumb Code     0  rtexit.o(.ARM.Collect$$rtexit$$00000000)
    __rt_exit_ls                             0x0800021b   Thumb Code     0  rtexit2.o(.ARM.Collect$$rtexit$$00000003)
    __rt_exit_prels_1                        0x0800021b   Thumb Code     0  rtexit2.o(.ARM.Collect$$rtexit$$00000002)
    __rt_exit_exit                           0x0800021f   Thumb Code     0  rtexit2.o(.ARM.Collect$$rtexit$$00000004)
    Reset_Handler                            0x08000225   Thumb Code     8  startup_stm32f10x_hd.o(.text)
    ADC1_2_IRQHandler                        0x0800023f   Thumb Code     0  startup_stm32f10x_hd.o(.text)
    ADC3_IRQHandler                          0x0800023f   Thumb Code     0  startup_stm32f10x_hd.o(.text)
    CAN1_RX1_IRQHandler                      0x0800023f   Thumb Code     0  startup_stm32f10x_hd.o(.text)
    CAN1_SCE_IRQHandler                      0x0800023f   Thumb Code     0  startup_stm32f10x_hd.o(.text)
    DMA1_Channel1_IRQHandler                 0x0800023f   Thumb Code     0  startup_stm32f10x_hd.o(.text)
    DMA1_Channel2_IRQHandler                 0x0800023f   Thumb Code     0  startup_stm32f10x_hd.o(.text)
    DMA1_Channel3_IRQHandler                 0x0800023f   Thumb Code     0  startup_stm32f10x_hd.o(.text)
    DMA1_Channel4_IRQHandler                 0x0800023f   Thumb Code     0  startup_stm32f10x_hd.o(.text)
    DMA1_Channel5_IRQHandler                 0x0800023f   Thumb Code     0  startup_stm32f10x_hd.o(.text)
    DMA1_Channel6_IRQHandler                 0x0800023f   Thumb Code     0  startup_stm32f10x_hd.o(.text)
    DMA1_Channel7_IRQHandler                 0x0800023f   Thumb Code     0  startup_stm32f10x_hd.o(.text)
    DMA2_Channel1_IRQHandler                 0x0800023f   Thumb Code     0  startup_stm32f10x_hd.o(.text)
    DMA2_Channel2_IRQHandler                 0x0800023f   Thumb Code     0  startup_stm32f10x_hd.o(.text)
    DMA2_Channel3_IRQHandler                 0x0800023f   Thumb Code     0  startup_stm32f10x_hd.o(.text)
    DMA2_Channel4_5_IRQHandler               0x0800023f   Thumb Code     0  startup_stm32f10x_hd.o(.text)
    EXTI0_IRQHandler                         0x0800023f   Thumb Code     0  startup_stm32f10x_hd.o(.text)
    EXTI15_10_IRQHandler                     0x0800023f   Thumb Code     0  startup_stm32f10x_hd.o(.text)
    EXTI1_IRQHandler                         0x0800023f   Thumb Code     0  startup_stm32f10x_hd.o(.text)
    EXTI2_IRQHandler                         0x0800023f   Thumb Code     0  startup_stm32f10x_hd.o(.text)
    EXTI3_IRQHandler                         0x0800023f   Thumb Code     0  startup_stm32f10x_hd.o(.text)
    EXTI4_IRQHandler                         0x0800023f   Thumb Code     0  startup_stm32f10x_hd.o(.text)
    FLASH_IRQHandler                         0x0800023f   Thumb Code     0  startup_stm32f10x_hd.o(.text)
    FSMC_IRQHandler                          0x0800023f   Thumb Code     0  startup_stm32f10x_hd.o(.text)
    I2C1_ER_IRQHandler                       0x0800023f   Thumb Code     0  startup_stm32f10x_hd.o(.text)
    I2C1_EV_IRQHandler                       0x0800023f   Thumb Code     0  startup_stm32f10x_hd.o(.text)
    I2C2_ER_IRQHandler                       0x0800023f   Thumb Code     0  startup_stm32f10x_hd.o(.text)
    I2C2_EV_IRQHandler                       0x0800023f   Thumb Code     0  startup_stm32f10x_hd.o(.text)
    PVD_IRQHandler                           0x0800023f   Thumb Code     0  startup_stm32f10x_hd.o(.text)
    RCC_IRQHandler                           0x0800023f   Thumb Code     0  startup_stm32f10x_hd.o(.text)
    RTCAlarm_IRQHandler                      0x0800023f   Thumb Code     0  startup_stm32f10x_hd.o(.text)
    RTC_IRQHandler                           0x0800023f   Thumb Code     0  startup_stm32f10x_hd.o(.text)
    SDIO_IRQHandler                          0x0800023f   Thumb Code     0  startup_stm32f10x_hd.o(.text)
    SPI1_IRQHandler                          0x0800023f   Thumb Code     0  startup_stm32f10x_hd.o(.text)
    SPI2_IRQHandler                          0x0800023f   Thumb Code     0  startup_stm32f10x_hd.o(.text)
    SPI3_IRQHandler                          0x0800023f   Thumb Code     0  startup_stm32f10x_hd.o(.text)
    TAMPER_IRQHandler                        0x0800023f   Thumb Code     0  startup_stm32f10x_hd.o(.text)
    TIM1_BRK_IRQHandler                      0x0800023f   Thumb Code     0  startup_stm32f10x_hd.o(.text)
    TIM1_CC_IRQHandler                       0x0800023f   Thumb Code     0  startup_stm32f10x_hd.o(.text)
    TIM1_TRG_COM_IRQHandler                  0x0800023f   Thumb Code     0  startup_stm32f10x_hd.o(.text)
    TIM1_UP_IRQHandler                       0x0800023f   Thumb Code     0  startup_stm32f10x_hd.o(.text)
    TIM2_IRQHandler                          0x0800023f   Thumb Code     0  startup_stm32f10x_hd.o(.text)
    TIM3_IRQHandler                          0x0800023f   Thumb Code     0  startup_stm32f10x_hd.o(.text)
    TIM4_IRQHandler                          0x0800023f   Thumb Code     0  startup_stm32f10x_hd.o(.text)
    TIM5_IRQHandler                          0x0800023f   Thumb Code     0  startup_stm32f10x_hd.o(.text)
    TIM6_IRQHandler                          0x0800023f   Thumb Code     0  startup_stm32f10x_hd.o(.text)
    TIM7_IRQHandler                          0x0800023f   Thumb Code     0  startup_stm32f10x_hd.o(.text)
    TIM8_BRK_IRQHandler                      0x0800023f   Thumb Code     0  startup_stm32f10x_hd.o(.text)
    TIM8_CC_IRQHandler                       0x0800023f   Thumb Code     0  startup_stm32f10x_hd.o(.text)
    TIM8_TRG_COM_IRQHandler                  0x0800023f   Thumb Code     0  startup_stm32f10x_hd.o(.text)
    TIM8_UP_IRQHandler                       0x0800023f   Thumb Code     0  startup_stm32f10x_hd.o(.text)
    UART4_IRQHandler                         0x0800023f   Thumb Code     0  startup_stm32f10x_hd.o(.text)
    UART5_IRQHandler                         0x0800023f   Thumb Code     0  startup_stm32f10x_hd.o(.text)
    USART2_IRQHandler                        0x0800023f   Thumb Code     0  startup_stm32f10x_hd.o(.text)
    USART3_IRQHandler                        0x0800023f   Thumb Code     0  startup_stm32f10x_hd.o(.text)
    USBWakeUp_IRQHandler                     0x0800023f   Thumb Code     0  startup_stm32f10x_hd.o(.text)
    USB_HP_CAN1_TX_IRQHandler                0x0800023f   Thumb Code     0  startup_stm32f10x_hd.o(.text)
    USB_LP_CAN1_RX0_IRQHandler               0x0800023f   Thumb Code     0  startup_stm32f10x_hd.o(.text)
    WWDG_IRQHandler                          0x0800023f   Thumb Code     0  startup_stm32f10x_hd.o(.text)
    __user_initial_stackheap                 0x08000241   Thumb Code     0  startup_stm32f10x_hd.o(.text)
    __use_no_semihosting                     0x08000265   Thumb Code     2  use_no_semi_2.o(.text)
    __2sprintf                               0x08000269   Thumb Code    34  noretval__2sprintf.o(.text)
    __printf                                 0x08000291   Thumb Code   270  __printf_wp.o(.text)
    __use_two_region_memory                  0x0800039f   Thumb Code     2  heapauxi.o(.text)
    __rt_heap_escrow$2region                 0x080003a1   Thumb Code     2  heapauxi.o(.text)
    __rt_heap_expand$2region                 0x080003a3   Thumb Code     2  heapauxi.o(.text)
    __I$use$semihosting                      0x080003a5   Thumb Code     0  use_no_semi.o(.text)
    __use_no_semihosting_swi                 0x080003a5   Thumb Code     2  use_no_semi.o(.text)
    __lib_sel_fp_printf                      0x080003a7   Thumb Code     2  _printf_fp_dec.o(.text)
    _printf_fp_dec_real                      0x08000555   Thumb Code   620  _printf_fp_dec.o(.text)
    _printf_char_common                      0x080007cb   Thumb Code    32  _printf_char_common.o(.text)
    _sputc                                   0x080007f1   Thumb Code    10  _sputc.o(.text)
    __rt_locale                              0x080007fd   Thumb Code     8  rt_locale_intlibspace.o(.text)
    _ll_udiv10                               0x08000805   Thumb Code   138  lludiv10.o(.text)
    _printf_fp_infnan                        0x08000891   Thumb Code   112  _printf_fp_infnan.o(.text)
    _btod_etento                             0x08000911   Thumb Code   216  bigflt0.o(.text)
    __user_libspace                          0x080009ed   Thumb Code     8  libspace.o(.text)
    __user_perproc_libspace                  0x080009ed   Thumb Code     0  libspace.o(.text)
    __user_perthread_libspace                0x080009ed   Thumb Code     0  libspace.o(.text)
    __user_setup_stackheap                   0x080009f5   Thumb Code    74  sys_stackheap_outer.o(.text)
    exit                                     0x08000a3f   Thumb Code    12  exit.o(.text)
    strcmp                                   0x08000a4d   Thumb Code   128  strcmpv7m.o(.text)
    _btod_d2e                                0x08000acd   Thumb Code    62  btod.o(CL$$btod_d2e)
    _d2e_denorm_low                          0x08000b0b   Thumb Code    70  btod.o(CL$$btod_d2e_denorm_low)
    _d2e_norm_op1                            0x08000b51   Thumb Code    96  btod.o(CL$$btod_d2e_norm_op1)
    __btod_div_common                        0x08000bb1   Thumb Code   696  btod.o(CL$$btod_div_common)
    _e2e                                     0x08000ee9   Thumb Code   198  btod.o(CL$$btod_e2e)
    _btod_ediv                               0x08000faf   Thumb Code    40  btod.o(CL$$btod_ediv)
    _btod_emul                               0x08000fd7   Thumb Code    40  btod.o(CL$$btod_emul)
    __btod_mult_common                       0x08000fff   Thumb Code   580  btod.o(CL$$btod_mult_common)
    ADC_Cmd                                  0x08001243   Thumb Code    22  stm32f10x_adc.o(i.ADC_Cmd)
    ADC_DeInit                               0x08001259   Thumb Code    78  stm32f10x_adc.o(i.ADC_DeInit)
    ADC_GetCalibrationStatus                 0x080012b5   Thumb Code    20  stm32f10x_adc.o(i.ADC_GetCalibrationStatus)
    ADC_GetConversionValue                   0x080012c9   Thumb Code     8  stm32f10x_adc.o(i.ADC_GetConversionValue)
    ADC_GetFlagStatus                        0x080012d1   Thumb Code    18  stm32f10x_adc.o(i.ADC_GetFlagStatus)
    ADC_GetResetCalibrationStatus            0x080012e3   Thumb Code    20  stm32f10x_adc.o(i.ADC_GetResetCalibrationStatus)
    ADC_Init                                 0x080012f9   Thumb Code    70  stm32f10x_adc.o(i.ADC_Init)
    ADC_RegularChannelConfig                 0x08001349   Thumb Code   184  stm32f10x_adc.o(i.ADC_RegularChannelConfig)
    ADC_ResetCalibration                     0x08001401   Thumb Code    10  stm32f10x_adc.o(i.ADC_ResetCalibration)
    ADC_SoftwareStartConvCmd                 0x0800140b   Thumb Code    22  stm32f10x_adc.o(i.ADC_SoftwareStartConvCmd)
    ADC_StartCalibration                     0x08001421   Thumb Code    10  stm32f10x_adc.o(i.ADC_StartCalibration)
    Adc_Init                                 0x0800142d   Thumb Code   132  adc.o(i.Adc_Init)
    BusFault_Handler                         0x080014b9   Thumb Code     4  stm32f10x_it.o(i.BusFault_Handler)
    DebugMon_Handler                         0x080014bd   Thumb Code     2  stm32f10x_it.o(i.DebugMon_Handler)
    DrawOscillogram                          0x080014c1   Thumb Code   410  sbq.o(i.DrawOscillogram)
    Draw_BianKuang                           0x08001675   Thumb Code   148  sbq.o(i.Draw_BianKuang)
    Draw_BoXing                              0x08001709   Thumb Code   400  sbq.o(i.Draw_BoXing)
    Draw_CanShu                              0x080018a9   Thumb Code   320  sbq.o(i.Draw_CanShu)
    Draw_GeZi                                0x08001a55   Thumb Code    84  sbq.o(i.Draw_GeZi)
    Draw_Menu                                0x08001aa9   Thumb Code   452  sbq.o(i.Draw_Menu)
    EXTI9_5_IRQHandler                       0x08001ca1   Thumb Code   102  exti.o(i.EXTI9_5_IRQHandler)
    EXTIX_Init                               0x08001d11   Thumb Code   134  exti.o(i.EXTIX_Init)
    EXTI_ClearITPendingBit                   0x08001d99   Thumb Code     6  stm32f10x_exti.o(i.EXTI_ClearITPendingBit)
    EXTI_Init                                0x08001da5   Thumb Code   142  stm32f10x_exti.o(i.EXTI_Init)
    GPIO_EXTILineConfig                      0x08001e39   Thumb Code    60  stm32f10x_gpio.o(i.GPIO_EXTILineConfig)
    GPIO_Init                                0x08001e79   Thumb Code   278  stm32f10x_gpio.o(i.GPIO_Init)
    GPIO_ReadInputDataBit                    0x08001f8f   Thumb Code    18  stm32f10x_gpio.o(i.GPIO_ReadInputDataBit)
    GPIO_ResetBits                           0x08001fa1   Thumb Code     4  stm32f10x_gpio.o(i.GPIO_ResetBits)
    GPIO_SetBits                             0x08001fa5   Thumb Code     4  stm32f10x_gpio.o(i.GPIO_SetBits)
    Get_Adc                                  0x08001fa9   Thumb Code    46  adc.o(i.Get_Adc)
    HardFault_Handler                        0x08001fdd   Thumb Code     4  stm32f10x_it.o(i.HardFault_Handler)
    KEY_Init                                 0x08001fe1   Thumb Code    34  key.o(i.KEY_Init)
    MemManage_Handler                        0x08002009   Thumb Code     4  stm32f10x_it.o(i.MemManage_Handler)
    NMI_Handler                              0x0800200d   Thumb Code     2  stm32f10x_it.o(i.NMI_Handler)
    NVIC_Init                                0x08002011   Thumb Code   100  misc.o(i.NVIC_Init)
    OLED_Clear                               0x08002081   Thumb Code    36  oled.o(i.OLED_Clear)
    OLED_ClearPoint                          0x080020a9   Thumb Code    90  oled.o(i.OLED_ClearPoint)
    OLED_ColorTurn                           0x08002109   Thumb Code    28  oled.o(i.OLED_ColorTurn)
    OLED_DisplayTurn                         0x08002125   Thumb Code    44  oled.o(i.OLED_DisplayTurn)
    OLED_DrawLine                            0x08002151   Thumb Code   176  oled.o(i.OLED_DrawLine)
    OLED_DrawLine_1                          0x08002201   Thumb Code   210  oled.o(i.OLED_DrawLine_1)
    OLED_DrawPoint                           0x080022d5   Thumb Code    54  oled.o(i.OLED_DrawPoint)
    OLED_DrawSquare                          0x08002311   Thumb Code    60  oled.o(i.OLED_DrawSquare)
    OLED_Init                                0x0800234d   Thumb Code   324  oled.o(i.OLED_Init)
    OLED_Refresh                             0x08002495   Thumb Code    70  oled.o(i.OLED_Refresh)
    OLED_Refresh_12                          0x080024e1   Thumb Code    70  oled.o(i.OLED_Refresh_12)
    OLED_Refresh_345678                      0x0800252d   Thumb Code    70  oled.o(i.OLED_Refresh_345678)
    OLED_ShowChar                            0x08002579   Thumb Code   240  oled.o(i.OLED_ShowChar)
    OLED_ShowChinese                         0x08002675   Thumb Code   248  oled.o(i.OLED_ShowChinese)
    OLED_ShowString                          0x0800277d   Thumb Code    66  oled.o(i.OLED_ShowString)
    OLED_WR_Byte                             0x080027c1   Thumb Code   126  oled.o(i.OLED_WR_Byte)
    PendSV_Handler                           0x08002845   Thumb Code     2  stm32f10x_it.o(i.PendSV_Handler)
    RCC_ADCCLKConfig                         0x08002849   Thumb Code    18  stm32f10x_rcc.o(i.RCC_ADCCLKConfig)
    RCC_APB1PeriphClockCmd                   0x08002861   Thumb Code    26  stm32f10x_rcc.o(i.RCC_APB1PeriphClockCmd)
    RCC_APB2PeriphClockCmd                   0x08002881   Thumb Code    26  stm32f10x_rcc.o(i.RCC_APB2PeriphClockCmd)
    RCC_APB2PeriphResetCmd                   0x080028a1   Thumb Code    26  stm32f10x_rcc.o(i.RCC_APB2PeriphResetCmd)
    SVC_Handler                              0x080028c1   Thumb Code     2  stm32f10x_it.o(i.SVC_Handler)
    SysTick_CLKSourceConfig                  0x080029ad   Thumb Code    40  misc.o(i.SysTick_CLKSourceConfig)
    SysTick_Handler                          0x080029d5   Thumb Code     2  stm32f10x_it.o(i.SysTick_Handler)
    SystemInit                               0x080029d9   Thumb Code    78  system_stm32f10x.o(i.SystemInit)
    TIM3_PWM_Init                            0x08002a39   Thumb Code   130  timer.o(i.TIM3_PWM_Init)
    TIM_Cmd                                  0x08002ac5   Thumb Code    24  stm32f10x_tim.o(i.TIM_Cmd)
    TIM_OC1Init                              0x08002add   Thumb Code   132  stm32f10x_tim.o(i.TIM_OC1Init)
    TIM_OC1PreloadConfig                     0x08002b75   Thumb Code    18  stm32f10x_tim.o(i.TIM_OC1PreloadConfig)
    TIM_TimeBaseInit                         0x08002b89   Thumb Code   122  stm32f10x_tim.o(i.TIM_TimeBaseInit)
    USART1_IRQHandler                        0x08002c2d   Thumb Code   122  usart.o(i.USART1_IRQHandler)
    USART_GetITStatus                        0x08002cb5   Thumb Code    84  stm32f10x_usart.o(i.USART_GetITStatus)
    USART_ReceiveData                        0x08002d09   Thumb Code    10  stm32f10x_usart.o(i.USART_ReceiveData)
    UsageFault_Handler                       0x08002d13   Thumb Code     4  stm32f10x_it.o(i.UsageFault_Handler)
    __ARM_fpclassify                         0x08002d17   Thumb Code    40  fpclassify.o(i.__ARM_fpclassify)
    _is_digit                                0x08002d3f   Thumb Code    14  __printf_wp.o(i._is_digit)
    _sys_exit                                0x08002d4d   Thumb Code     6  usart.o(i._sys_exit)
    begin                                    0x08002d55   Thumb Code   116  main.o(i.begin)
    delay_init                               0x08002dd1   Thumb Code    50  delay.o(i.delay_init)
    delay_ms                                 0x08002e15   Thumb Code    72  delay.o(i.delay_ms)
    delay_us                                 0x08002e61   Thumb Code    72  delay.o(i.delay_us)
    main                                     0x08002ead   Thumb Code    92  main.o(i.main)
    _get_lc_numeric                          0x08002f15   Thumb Code    44  lc_numeric_c.o(locale$$code)
    __aeabi_d2f                              0x08002f41   Thumb Code     0  d2f.o(x$fpl$d2f)
    _d2f                                     0x08002f41   Thumb Code    98  d2f.o(x$fpl$d2f)
    __aeabi_dadd                             0x08002fa5   Thumb Code     0  daddsub_clz.o(x$fpl$dadd)
    _dadd                                    0x08002fa5   Thumb Code   332  daddsub_clz.o(x$fpl$dadd)
    __fpl_dcmp_Inf                           0x080030f5   Thumb Code    24  dcmpi.o(x$fpl$dcmpinf)
    __aeabi_ddiv                             0x0800310d   Thumb Code     0  ddiv.o(x$fpl$ddiv)
    _ddiv                                    0x0800310d   Thumb Code   552  ddiv.o(x$fpl$ddiv)
    __aeabi_d2uiz                            0x080033bd   Thumb Code     0  dfixu.o(x$fpl$dfixu)
    _dfixu                                   0x080033bd   Thumb Code    90  dfixu.o(x$fpl$dfixu)
    __aeabi_i2d                              0x08003417   Thumb Code     0  dflt_clz.o(x$fpl$dflt)
    _dflt                                    0x08003417   Thumb Code    46  dflt_clz.o(x$fpl$dflt)
    __aeabi_cdcmple                          0x08003445   Thumb Code     0  dleqf.o(x$fpl$dleqf)
    _dcmple                                  0x08003445   Thumb Code   120  dleqf.o(x$fpl$dleqf)
    __fpl_dcmple_InfNaN                      0x080034a7   Thumb Code     0  dleqf.o(x$fpl$dleqf)
    __aeabi_dmul                             0x080034bd   Thumb Code     0  dmul.o(x$fpl$dmul)
    _dmul                                    0x080034bd   Thumb Code   332  dmul.o(x$fpl$dmul)
    __fpl_dnaninf                            0x08003611   Thumb Code   156  dnaninf.o(x$fpl$dnaninf)
    __fpl_dretinf                            0x080036ad   Thumb Code    12  dretinf.o(x$fpl$dretinf)
    __aeabi_cdrcmple                         0x080036b9   Thumb Code     0  drleqf.o(x$fpl$drleqf)
    _drcmple                                 0x080036b9   Thumb Code   108  drleqf.o(x$fpl$drleqf)
    __aeabi_dsub                             0x08003725   Thumb Code     0  daddsub_clz.o(x$fpl$dsub)
    _dsub                                    0x08003725   Thumb Code   464  daddsub_clz.o(x$fpl$dsub)
    __aeabi_f2d                              0x080038f9   Thumb Code     0  f2d.o(x$fpl$f2d)
    _f2d                                     0x080038f9   Thumb Code    86  f2d.o(x$fpl$f2d)
    __aeabi_fadd                             0x08003951   Thumb Code     0  faddsub_clz.o(x$fpl$fadd)
    _fadd                                    0x08003951   Thumb Code   196  faddsub_clz.o(x$fpl$fadd)
    __fpl_fcmp_Inf                           0x08003a15   Thumb Code    24  fcmpi.o(x$fpl$fcmpinf)
    __aeabi_fdiv                             0x08003a2d   Thumb Code     0  fdiv.o(x$fpl$fdiv)
    _fdiv                                    0x08003a2d   Thumb Code   384  fdiv.o(x$fpl$fdiv)
    __aeabi_f2uiz                            0x08003bb1   Thumb Code     0  ffixu.o(x$fpl$ffixu)
    _ffixu                                   0x08003bb1   Thumb Code    62  ffixu.o(x$fpl$ffixu)
    __aeabi_ui2f                             0x08003bf1   Thumb Code     0  fflt_clz.o(x$fpl$ffltu)
    _ffltu                                   0x08003bf1   Thumb Code    38  fflt_clz.o(x$fpl$ffltu)
    __aeabi_cfcmple                          0x08003c19   Thumb Code     0  fleqf.o(x$fpl$fleqf)
    _fcmple                                  0x08003c19   Thumb Code   104  fleqf.o(x$fpl$fleqf)
    __fpl_fcmple_InfNaN                      0x08003c6b   Thumb Code     0  fleqf.o(x$fpl$fleqf)
    __aeabi_fmul                             0x08003c81   Thumb Code     0  fmul.o(x$fpl$fmul)
    _fmul                                    0x08003c81   Thumb Code   258  fmul.o(x$fpl$fmul)
    __fpl_fnaninf                            0x08003d83   Thumb Code   140  fnaninf.o(x$fpl$fnaninf)
    __fpl_fretinf                            0x08003e0f   Thumb Code    10  fretinf.o(x$fpl$fretinf)
    __aeabi_cfrcmple                         0x08003e19   Thumb Code     0  frleqf.o(x$fpl$frleqf)
    _frcmple                                 0x08003e19   Thumb Code    98  frleqf.o(x$fpl$frleqf)
    __aeabi_fsub                             0x08003e7d   Thumb Code     0  faddsub_clz.o(x$fpl$fsub)
    _fsub                                    0x08003e7d   Thumb Code   234  faddsub_clz.o(x$fpl$fsub)
    _printf_fp_dec                           0x08003f67   Thumb Code     4  printf1.o(x$fpl$printf1)
    __I$use$fp                               0x08003f6a   Number         0  usenofp.o(x$fpl$usenofp)
    asc2_1206                                0x08003f6a   Data        1140  oled.o(.constdata)
    asc2_1608                                0x080043de   Data        1520  oled.o(.constdata)
    asc2_2412                                0x080049ce   Data        3420  oled.o(.constdata)
    Region$$Table$$Base                      0x080057c0   Number         0  anon$$obj.o(Region$$Table)
    Region$$Table$$Limit                     0x080057e0   Number         0  anon$$obj.o(Region$$Table)
    SystemCoreClock                          0x20000000   Data           4  system_stm32f10x.o(.data)
    AHBPrescTable                            0x20000004   Data          16  system_stm32f10x.o(.data)
    __stdout                                 0x20000018   Data           4  usart.o(.data)
    USART_RX_STA                             0x2000001c   Data           2  usart.o(.data)
    KEY_Value                                0x2000001e   Data           1  exti.o(.data)
    Hzk1                                     0x2000001f   Data         544  oled.o(.data)
    Hzk2                                     0x2000023f   Data         648  oled.o(.data)
    Hzk3                                     0x200004c7   Data         512  oled.o(.data)
    Hzk4                                     0x200006c7   Data        4096  oled.o(.data)
    menu                                     0x200016c7   Data           1  sbq.o(.data)
    USART_RX_BUF                             0x200016c8   Data         200  usart.o(.bss)
    OLED_GRAM                                0x20001790   Data        1152  oled.o(.bss)
    oscilldev                                0x20001c10   Data         276  sbq.o(.bss)
    __libspace_start                         0x20001d24   Data          96  libspace.o(.bss)
    __temporary_stack_top$libspace           0x20001d84   Data           0  libspace.o(.bss)



==============================================================================

Memory Map of the image

  Image Entry point : 0x08000225

  Load Region LR_1 (Base: 0x08000000, Size: 0x00006ec4, Max: 0xffffffff, ABSOLUTE, COMPRESSED[0x00005ad0])

    Execution Region ER_RO (Base: 0x08000000, Size: 0x000057fc, Max: 0xffffffff, ABSOLUTE)

    Base Addr    Size         Type   Attr      Idx    E Section Name        Object

    0x08000000   0x00000130   Data   RO          366    RESET               startup_stm32f10x_hd.o
    0x08000130   0x00000008   Code   RO         3677  * !!!main             c_w.l(__main.o)
    0x08000138   0x00000034   Code   RO         3956    !!!scatter          c_w.l(__scatter.o)
    0x0800016c   0x0000005a   Code   RO         3954    !!dczerorl2         c_w.l(__dczerorl2.o)
    0x080001c6   0x00000002   PAD
    0x080001c8   0x0000001c   Code   RO         3958    !!handler_zi        c_w.l(__scatter_zi.o)
    0x080001e4   0x00000000   Code   RO         3674    .ARM.Collect$$_printf_percent$$00000000  c_w.l(_printf_percent.o)
    0x080001e4   0x00000006   Code   RO         3673    .ARM.Collect$$_printf_percent$$00000003  c_w.l(_printf_f.o)
    0x080001ea   0x00000004   Code   RO         3744    .ARM.Collect$$_printf_percent$$00000017  c_w.l(_printf_percent_end.o)
    0x080001ee   0x00000002   Code   RO         3832    .ARM.Collect$$libinit$$00000000  c_w.l(libinit.o)
    0x080001f0   0x00000000   Code   RO         3834    .ARM.Collect$$libinit$$00000002  c_w.l(libinit2.o)
    0x080001f0   0x00000000   Code   RO         3836    .ARM.Collect$$libinit$$00000004  c_w.l(libinit2.o)
    0x080001f0   0x00000000   Code   RO         3839    .ARM.Collect$$libinit$$0000000A  c_w.l(libinit2.o)
    0x080001f0   0x00000000   Code   RO         3841    .ARM.Collect$$libinit$$0000000C  c_w.l(libinit2.o)
    0x080001f0   0x00000000   Code   RO         3843    .ARM.Collect$$libinit$$0000000E  c_w.l(libinit2.o)
    0x080001f0   0x00000006   Code   RO         3844    .ARM.Collect$$libinit$$0000000F  c_w.l(libinit2.o)
    0x080001f6   0x00000000   Code   RO         3846    .ARM.Collect$$libinit$$00000011  c_w.l(libinit2.o)
    0x080001f6   0x00000000   Code   RO         3848    .ARM.Collect$$libinit$$00000013  c_w.l(libinit2.o)
    0x080001f6   0x00000000   Code   RO         3850    .ARM.Collect$$libinit$$00000015  c_w.l(libinit2.o)
    0x080001f6   0x0000000a   Code   RO         3851    .ARM.Collect$$libinit$$00000016  c_w.l(libinit2.o)
    0x08000200   0x00000000   Code   RO         3852    .ARM.Collect$$libinit$$00000017  c_w.l(libinit2.o)
    0x08000200   0x00000000   Code   RO         3854    .ARM.Collect$$libinit$$00000019  c_w.l(libinit2.o)
    0x08000200   0x00000000   Code   RO         3856    .ARM.Collect$$libinit$$0000001B  c_w.l(libinit2.o)
    0x08000200   0x00000000   Code   RO         3858    .ARM.Collect$$libinit$$0000001D  c_w.l(libinit2.o)
    0x08000200   0x00000000   Code   RO         3860    .ARM.Collect$$libinit$$0000001F  c_w.l(libinit2.o)
    0x08000200   0x00000000   Code   RO         3862    .ARM.Collect$$libinit$$00000021  c_w.l(libinit2.o)
    0x08000200   0x00000000   Code   RO         3864    .ARM.Collect$$libinit$$00000023  c_w.l(libinit2.o)
    0x08000200   0x00000000   Code   RO         3866    .ARM.Collect$$libinit$$00000025  c_w.l(libinit2.o)
    0x08000200   0x00000000   Code   RO         3870    .ARM.Collect$$libinit$$0000002C  c_w.l(libinit2.o)
    0x08000200   0x00000000   Code   RO         3872    .ARM.Collect$$libinit$$0000002E  c_w.l(libinit2.o)
    0x08000200   0x00000000   Code   RO         3874    .ARM.Collect$$libinit$$00000030  c_w.l(libinit2.o)
    0x08000200   0x00000000   Code   RO         3876    .ARM.Collect$$libinit$$00000032  c_w.l(libinit2.o)
    0x08000200   0x00000002   Code   RO         3877    .ARM.Collect$$libinit$$00000033  c_w.l(libinit2.o)
    0x08000202   0x00000002   Code   RO         3905    .ARM.Collect$$libshutdown$$00000000  c_w.l(libshutdown.o)
    0x08000204   0x00000000   Code   RO         3915    .ARM.Collect$$libshutdown$$00000003  c_w.l(libshutdown2.o)
    0x08000204   0x00000000   Code   RO         3918    .ARM.Collect$$libshutdown$$00000006  c_w.l(libshutdown2.o)
    0x08000204   0x00000000   Code   RO         3921    .ARM.Collect$$libshutdown$$00000009  c_w.l(libshutdown2.o)
    0x08000204   0x00000000   Code   RO         3923    .ARM.Collect$$libshutdown$$0000000B  c_w.l(libshutdown2.o)
    0x08000204   0x00000000   Code   RO         3926    .ARM.Collect$$libshutdown$$0000000E  c_w.l(libshutdown2.o)
    0x08000204   0x00000002   Code   RO         3927    .ARM.Collect$$libshutdown$$0000000F  c_w.l(libshutdown2.o)
    0x08000206   0x00000000   Code   RO         3737    .ARM.Collect$$rtentry$$00000000  c_w.l(__rtentry.o)
    0x08000206   0x00000000   Code   RO         3759    .ARM.Collect$$rtentry$$00000002  c_w.l(__rtentry2.o)
    0x08000206   0x00000006   Code   RO         3771    .ARM.Collect$$rtentry$$00000004  c_w.l(__rtentry4.o)
    0x0800020c   0x00000000   Code   RO         3761    .ARM.Collect$$rtentry$$00000009  c_w.l(__rtentry2.o)
    0x0800020c   0x00000004   Code   RO         3762    .ARM.Collect$$rtentry$$0000000A  c_w.l(__rtentry2.o)
    0x08000210   0x00000000   Code   RO         3764    .ARM.Collect$$rtentry$$0000000C  c_w.l(__rtentry2.o)
    0x08000210   0x00000008   Code   RO         3765    .ARM.Collect$$rtentry$$0000000D  c_w.l(__rtentry2.o)
    0x08000218   0x00000002   Code   RO         3878    .ARM.Collect$$rtexit$$00000000  c_w.l(rtexit.o)
    0x0800021a   0x00000000   Code   RO         3885    .ARM.Collect$$rtexit$$00000002  c_w.l(rtexit2.o)
    0x0800021a   0x00000004   Code   RO         3886    .ARM.Collect$$rtexit$$00000003  c_w.l(rtexit2.o)
    0x0800021e   0x00000006   Code   RO         3887    .ARM.Collect$$rtexit$$00000004  c_w.l(rtexit2.o)
    0x08000224   0x00000040   Code   RO          367  * .text               startup_stm32f10x_hd.o
    0x08000264   0x00000002   Code   RO         3645    .text               c_w.l(use_no_semi_2.o)
    0x08000266   0x00000002   PAD
    0x08000268   0x00000028   Code   RO         3649    .text               c_w.l(noretval__2sprintf.o)
    0x08000290   0x0000010e   Code   RO         3661    .text               c_w.l(__printf_wp.o)
    0x0800039e   0x00000006   Code   RO         3675    .text               c_w.l(heapauxi.o)
    0x080003a4   0x00000002   Code   RO         3735    .text               c_w.l(use_no_semi.o)
    0x080003a6   0x0000041a   Code   RO         3738    .text               c_w.l(_printf_fp_dec.o)
    0x080007c0   0x00000030   Code   RO         3740    .text               c_w.l(_printf_char_common.o)
    0x080007f0   0x0000000a   Code   RO         3742    .text               c_w.l(_sputc.o)
    0x080007fa   0x00000002   PAD
    0x080007fc   0x00000008   Code   RO         3776    .text               c_w.l(rt_locale_intlibspace.o)
    0x08000804   0x0000008a   Code   RO         3778    .text               c_w.l(lludiv10.o)
    0x0800088e   0x00000002   PAD
    0x08000890   0x00000080   Code   RO         3780    .text               c_w.l(_printf_fp_infnan.o)
    0x08000910   0x000000dc   Code   RO         3784    .text               c_w.l(bigflt0.o)
    0x080009ec   0x00000008   Code   RO         3818    .text               c_w.l(libspace.o)
    0x080009f4   0x0000004a   Code   RO         3821    .text               c_w.l(sys_stackheap_outer.o)
    0x08000a3e   0x0000000c   Code   RO         3823    .text               c_w.l(exit.o)
    0x08000a4a   0x00000002   PAD
    0x08000a4c   0x00000080   Code   RO         3825    .text               c_w.l(strcmpv7m.o)
    0x08000acc   0x0000003e   Code   RO         3787    CL$$btod_d2e        c_w.l(btod.o)
    0x08000b0a   0x00000046   Code   RO         3789    CL$$btod_d2e_denorm_low  c_w.l(btod.o)
    0x08000b50   0x00000060   Code   RO         3788    CL$$btod_d2e_norm_op1  c_w.l(btod.o)
    0x08000bb0   0x00000338   Code   RO         3797    CL$$btod_div_common  c_w.l(btod.o)
    0x08000ee8   0x000000c6   Code   RO         3794    CL$$btod_e2e        c_w.l(btod.o)
    0x08000fae   0x00000028   Code   RO         3791    CL$$btod_ediv       c_w.l(btod.o)
    0x08000fd6   0x00000028   Code   RO         3790    CL$$btod_emul       c_w.l(btod.o)
    0x08000ffe   0x00000244   Code   RO         3796    CL$$btod_mult_common  c_w.l(btod.o)
    0x08001242   0x00000016   Code   RO          413    i.ADC_Cmd           stm32f10x_adc.o
    0x08001258   0x0000005c   Code   RO          415    i.ADC_DeInit        stm32f10x_adc.o
    0x080012b4   0x00000014   Code   RO          421    i.ADC_GetCalibrationStatus  stm32f10x_adc.o
    0x080012c8   0x00000008   Code   RO          422    i.ADC_GetConversionValue  stm32f10x_adc.o
    0x080012d0   0x00000012   Code   RO          424    i.ADC_GetFlagStatus  stm32f10x_adc.o
    0x080012e2   0x00000014   Code   RO          427    i.ADC_GetResetCalibrationStatus  stm32f10x_adc.o
    0x080012f6   0x00000002   PAD
    0x080012f8   0x00000050   Code   RO          431    i.ADC_Init          stm32f10x_adc.o
    0x08001348   0x000000b8   Code   RO          435    i.ADC_RegularChannelConfig  stm32f10x_adc.o
    0x08001400   0x0000000a   Code   RO          436    i.ADC_ResetCalibration  stm32f10x_adc.o
    0x0800140a   0x00000016   Code   RO          438    i.ADC_SoftwareStartConvCmd  stm32f10x_adc.o
    0x08001420   0x0000000a   Code   RO          440    i.ADC_StartCalibration  stm32f10x_adc.o
    0x0800142a   0x00000002   PAD
    0x0800142c   0x0000008c   Code   RO         3338    i.Adc_Init          adc.o
    0x080014b8   0x00000004   Code   RO          135    i.BusFault_Handler  stm32f10x_it.o
    0x080014bc   0x00000002   Code   RO          136    i.DebugMon_Handler  stm32f10x_it.o
    0x080014be   0x00000002   PAD
    0x080014c0   0x000001b4   Code   RO         3572    i.DrawOscillogram   sbq.o
    0x08001674   0x00000094   Code   RO         3573    i.Draw_BianKuang    sbq.o
    0x08001708   0x000001a0   Code   RO         3574    i.Draw_BoXing       sbq.o
    0x080018a8   0x000001ac   Code   RO         3575    i.Draw_CanShu       sbq.o
    0x08001a54   0x00000054   Code   RO         3576    i.Draw_GeZi         sbq.o
    0x08001aa8   0x000001f8   Code   RO         3577    i.Draw_Menu         sbq.o
    0x08001ca0   0x00000070   Code   RO         3362    i.EXTI9_5_IRQHandler  exti.o
    0x08001d10   0x00000086   Code   RO         3363    i.EXTIX_Init        exti.o
    0x08001d96   0x00000002   PAD
    0x08001d98   0x0000000c   Code   RO         1169    i.EXTI_ClearITPendingBit  stm32f10x_exti.o
    0x08001da4   0x00000094   Code   RO         1174    i.EXTI_Init         stm32f10x_exti.o
    0x08001e38   0x00000040   Code   RO         1519    i.GPIO_EXTILineConfig  stm32f10x_gpio.o
    0x08001e78   0x00000116   Code   RO         1522    i.GPIO_Init         stm32f10x_gpio.o
    0x08001f8e   0x00000012   Code   RO         1526    i.GPIO_ReadInputDataBit  stm32f10x_gpio.o
    0x08001fa0   0x00000004   Code   RO         1529    i.GPIO_ResetBits    stm32f10x_gpio.o
    0x08001fa4   0x00000004   Code   RO         1530    i.GPIO_SetBits      stm32f10x_gpio.o
    0x08001fa8   0x00000034   Code   RO         3339    i.Get_Adc           adc.o
    0x08001fdc   0x00000004   Code   RO          137    i.HardFault_Handler  stm32f10x_it.o
    0x08001fe0   0x00000028   Code   RO         3398    i.KEY_Init          key.o
    0x08002008   0x00000004   Code   RO          138    i.MemManage_Handler  stm32f10x_it.o
    0x0800200c   0x00000002   Code   RO          139    i.NMI_Handler       stm32f10x_it.o
    0x0800200e   0x00000002   PAD
    0x08002010   0x00000070   Code   RO          371    i.NVIC_Init         misc.o
    0x08002080   0x00000028   Code   RO         3410    i.OLED_Clear        oled.o
    0x080020a8   0x00000060   Code   RO         3411    i.OLED_ClearPoint   oled.o
    0x08002108   0x0000001c   Code   RO         3412    i.OLED_ColorTurn    oled.o
    0x08002124   0x0000002c   Code   RO         3415    i.OLED_DisplayTurn  oled.o
    0x08002150   0x000000b0   Code   RO         3417    i.OLED_DrawLine     oled.o
    0x08002200   0x000000d2   Code   RO         3418    i.OLED_DrawLine_1   oled.o
    0x080022d2   0x00000002   PAD
    0x080022d4   0x0000003c   Code   RO         3419    i.OLED_DrawPoint    oled.o
    0x08002310   0x0000003c   Code   RO         3420    i.OLED_DrawSquare   oled.o
    0x0800234c   0x00000148   Code   RO         3421    i.OLED_Init         oled.o
    0x08002494   0x0000004c   Code   RO         3423    i.OLED_Refresh      oled.o
    0x080024e0   0x0000004c   Code   RO         3424    i.OLED_Refresh_12   oled.o
    0x0800252c   0x0000004c   Code   RO         3425    i.OLED_Refresh_345678  oled.o
    0x08002578   0x000000fc   Code   RO         3427    i.OLED_ShowChar     oled.o
    0x08002674   0x00000108   Code   RO         3428    i.OLED_ShowChinese  oled.o
    0x0800277c   0x00000042   Code   RO         3431    i.OLED_ShowString   oled.o
    0x080027be   0x00000002   PAD
    0x080027c0   0x00000084   Code   RO         3433    i.OLED_WR_Byte      oled.o
    0x08002844   0x00000002   Code   RO          140    i.PendSV_Handler    stm32f10x_it.o
    0x08002846   0x00000002   PAD
    0x08002848   0x00000018   Code   RO         1936    i.RCC_ADCCLKConfig  stm32f10x_rcc.o
    0x08002860   0x00000020   Code   RO         1938    i.RCC_APB1PeriphClockCmd  stm32f10x_rcc.o
    0x08002880   0x00000020   Code   RO         1940    i.RCC_APB2PeriphClockCmd  stm32f10x_rcc.o
    0x080028a0   0x00000020   Code   RO         1941    i.RCC_APB2PeriphResetCmd  stm32f10x_rcc.o
    0x080028c0   0x00000002   Code   RO          141    i.SVC_Handler       stm32f10x_it.o
    0x080028c2   0x00000008   Code   RO          224    i.SetSysClock       system_stm32f10x.o
    0x080028ca   0x00000002   PAD
    0x080028cc   0x000000e0   Code   RO          225    i.SetSysClockTo72   system_stm32f10x.o
    0x080029ac   0x00000028   Code   RO          375    i.SysTick_CLKSourceConfig  misc.o
    0x080029d4   0x00000002   Code   RO          142    i.SysTick_Handler   stm32f10x_it.o
    0x080029d6   0x00000002   PAD
    0x080029d8   0x00000060   Code   RO          227    i.SystemInit        system_stm32f10x.o
    0x08002a38   0x0000008c   Code   RO         3631    i.TIM3_PWM_Init     timer.o
    0x08002ac4   0x00000018   Code   RO         2572    i.TIM_Cmd           stm32f10x_tim.o
    0x08002adc   0x00000098   Code   RO         2601    i.TIM_OC1Init       stm32f10x_tim.o
    0x08002b74   0x00000012   Code   RO         2604    i.TIM_OC1PreloadConfig  stm32f10x_tim.o
    0x08002b86   0x00000002   PAD
    0x08002b88   0x000000a4   Code   RO         2643    i.TIM_TimeBaseInit  stm32f10x_tim.o
    0x08002c2c   0x00000088   Code   RO          313    i.USART1_IRQHandler  usart.o
    0x08002cb4   0x00000054   Code   RO         3112    i.USART_GetITStatus  stm32f10x_usart.o
    0x08002d08   0x0000000a   Code   RO         3122    i.USART_ReceiveData  stm32f10x_usart.o
    0x08002d12   0x00000004   Code   RO          143    i.UsageFault_Handler  stm32f10x_it.o
    0x08002d16   0x00000028   Code   RO         3816    i.__ARM_fpclassify  m_ws.l(fpclassify.o)
    0x08002d3e   0x0000000e   Code   RO         3663    i._is_digit         c_w.l(__printf_wp.o)
    0x08002d4c   0x00000006   Code   RO          314    i._sys_exit         usart.o
    0x08002d52   0x00000002   PAD
    0x08002d54   0x0000007c   Code   RO            1    i.begin             main.o
    0x08002dd0   0x00000044   Code   RO          258    i.delay_init        delay.o
    0x08002e14   0x0000004c   Code   RO          259    i.delay_ms          delay.o
    0x08002e60   0x0000004c   Code   RO          260    i.delay_us          delay.o
    0x08002eac   0x00000068   Code   RO            2    i.main              main.o
    0x08002f14   0x0000002c   Code   RO         3810    locale$$code        c_w.l(lc_numeric_c.o)
    0x08002f40   0x00000062   Code   RO         3679    x$fpl$d2f           fz_ws.l(d2f.o)
    0x08002fa2   0x00000002   PAD
    0x08002fa4   0x00000150   Code   RO         3681    x$fpl$dadd          fz_ws.l(daddsub_clz.o)
    0x080030f4   0x00000018   Code   RO         3812    x$fpl$dcmpinf       fz_ws.l(dcmpi.o)
    0x0800310c   0x000002b0   Code   RO         3688    x$fpl$ddiv          fz_ws.l(ddiv.o)
    0x080033bc   0x0000005a   Code   RO         3691    x$fpl$dfixu         fz_ws.l(dfixu.o)
    0x08003416   0x0000002e   Code   RO         3696    x$fpl$dflt          fz_ws.l(dflt_clz.o)
    0x08003444   0x00000078   Code   RO         3745    x$fpl$dleqf         fz_ws.l(dleqf.o)
    0x080034bc   0x00000154   Code   RO         3701    x$fpl$dmul          fz_ws.l(dmul.o)
    0x08003610   0x0000009c   Code   RO         3747    x$fpl$dnaninf       fz_ws.l(dnaninf.o)
    0x080036ac   0x0000000c   Code   RO         3749    x$fpl$dretinf       fz_ws.l(dretinf.o)
    0x080036b8   0x0000006c   Code   RO         3703    x$fpl$drleqf        fz_ws.l(drleqf.o)
    0x08003724   0x000001d4   Code   RO         3683    x$fpl$dsub          fz_ws.l(daddsub_clz.o)
    0x080038f8   0x00000056   Code   RO         3705    x$fpl$f2d           fz_ws.l(f2d.o)
    0x0800394e   0x00000002   PAD
    0x08003950   0x000000c4   Code   RO         3707    x$fpl$fadd          fz_ws.l(faddsub_clz.o)
    0x08003a14   0x00000018   Code   RO         3751    x$fpl$fcmpinf       fz_ws.l(fcmpi.o)
    0x08003a2c   0x00000184   Code   RO         3714    x$fpl$fdiv          fz_ws.l(fdiv.o)
    0x08003bb0   0x0000003e   Code   RO         3717    x$fpl$ffixu         fz_ws.l(ffixu.o)
    0x08003bee   0x00000002   PAD
    0x08003bf0   0x00000026   Code   RO         3721    x$fpl$ffltu         fz_ws.l(fflt_clz.o)
    0x08003c16   0x00000002   PAD
    0x08003c18   0x00000068   Code   RO         3727    x$fpl$fleqf         fz_ws.l(fleqf.o)
    0x08003c80   0x00000102   Code   RO         3729    x$fpl$fmul          fz_ws.l(fmul.o)
    0x08003d82   0x0000008c   Code   RO         3753    x$fpl$fnaninf       fz_ws.l(fnaninf.o)
    0x08003e0e   0x0000000a   Code   RO         3755    x$fpl$fretinf       fz_ws.l(fretinf.o)
    0x08003e18   0x00000062   Code   RO         3731    x$fpl$frleqf        fz_ws.l(frleqf.o)
    0x08003e7a   0x00000002   PAD
    0x08003e7c   0x000000ea   Code   RO         3709    x$fpl$fsub          fz_ws.l(faddsub_clz.o)
    0x08003f66   0x00000004   Code   RO         3733    x$fpl$printf1       fz_ws.l(printf1.o)
    0x08003f6a   0x00000000   Code   RO         3757    x$fpl$usenofp       fz_ws.l(usenofp.o)
    0x08003f6a   0x000017c0   Data   RO         3435    .constdata          oled.o
    0x0800572a   0x00000002   PAD
    0x0800572c   0x00000094   Data   RO         3785    .constdata          c_w.l(bigflt0.o)
    0x080057c0   0x00000020   Data   RO         3952    Region$$Table       anon$$obj.o
    0x080057e0   0x0000001c   Data   RO         3809    locale$$data        c_w.l(lc_numeric_c.o)


    Execution Region ER_RW (Base: 0x20000000, Size: 0x000016c8, Max: 0xffffffff, ABSOLUTE, COMPRESSED[0x000002d4])

    Base Addr    Size         Type   Attr      Idx    E Section Name        Object

    0x20000000   0x00000014   Data   RW          228    .data               system_stm32f10x.o
    0x20000014   0x00000004   Data   RW          261    .data               delay.o
    0x20000018   0x00000006   Data   RW          318    .data               usart.o
    0x2000001e   0x00000001   Data   RW         3364    .data               exti.o
    0x2000001f   0x000016a8   Data   RW         3436    .data               oled.o
    0x200016c7   0x00000001   Data   RW         3579    .data               sbq.o


    Execution Region ER_ZI (Base: 0x200016c8, Size: 0x00000cc0, Max: 0xffffffff, ABSOLUTE)

    Base Addr    Size         Type   Attr      Idx    E Section Name        Object

    0x200016c8   0x000000c8   Zero   RW          317    .bss                usart.o
    0x20001790   0x00000480   Zero   RW         3434    .bss                oled.o
    0x20001c10   0x00000114   Zero   RW         3578    .bss                sbq.o
    0x20001d24   0x00000060   Zero   RW         3819    .bss                c_w.l(libspace.o)
    0x20001d84   0x00000004   PAD
    0x20001d88   0x00000200   Zero   RW          365    HEAP                startup_stm32f10x_hd.o
    0x20001f88   0x00000400   Zero   RW          364    STACK               startup_stm32f10x_hd.o


==============================================================================

Image component sizes


      Code (inc. data)   RO Data    RW Data    ZI Data      Debug   Object Name

       192         14          0          0          0       1073   adc.o
       220         26          0          4          0       1603   delay.o
       246         10          0          1          0       1282   exti.o
        40          6          0          0          0        463   key.o
       228         20          0          0          0     254635   main.o
       152         12          0          0          0       1474   misc.o
      1984         72       6080       5800       1152      11913   oled.o
      2016        208          0          1        276       4276   sbq.o
        64         26        304          0       1536        776   startup_stm32f10x_hd.o
       486         24          0          0          0       8234   stm32f10x_adc.o
       160         12          0          0          0       1429   stm32f10x_exti.o
       368          4          0          0          0       4114   stm32f10x_gpio.o
        26          0          0          0          0       3498   stm32f10x_it.o
       120         24          0          0          0       2158   stm32f10x_rcc.o
       358         62          0          0          0       2934   stm32f10x_tim.o
        94          0          0          0          0       2644   stm32f10x_usart.o
         0          0          0          0          0         32   sys.o
       328         28          0         20          0       1977   system_stm32f10x.o
       140         10          0          0          0        704   timer.o
       142         14          0          6        200       2820   usart.o

    ----------------------------------------------------------------------
      7388        572       6418       5832       3164     308039   Object Totals
         0          0         32          0          0          0   (incl. Generated)
        24          0          2          0          0          0   (incl. Padding)

    ----------------------------------------------------------------------

      Code (inc. data)   RO Data    RW Data    ZI Data      Debug   Library Member Name

        90          0          0          0          0          0   __dczerorl2.o
         8          0          0          0          0         68   __main.o
       284          0          0          0          0        156   __printf_wp.o
         0          0          0          0          0          0   __rtentry.o
        12          0          0          0          0          0   __rtentry2.o
         6          0          0          0          0          0   __rtentry4.o
        52          8          0          0          0          0   __scatter.o
        28          0          0          0          0          0   __scatter_zi.o
        48          6          0          0          0         96   _printf_char_common.o
         6          0          0          0          0          0   _printf_f.o
      1050          0          0          0          0        216   _printf_fp_dec.o
       128         16          0          0          0         84   _printf_fp_infnan.o
         0          0          0          0          0          0   _printf_percent.o
         4          0          0          0          0          0   _printf_percent_end.o
        10          0          0          0          0         68   _sputc.o
       220          4        148          0          0         96   bigflt0.o
      1910        128          0          0          0        672   btod.o
        12          0          0          0          0         72   exit.o
         6          0          0          0          0        152   heapauxi.o
        44         10         28          0          0         76   lc_numeric_c.o
         2          0          0          0          0          0   libinit.o
        18          0          0          0          0          0   libinit2.o
         2          0          0          0          0          0   libshutdown.o
         2          0          0          0          0          0   libshutdown2.o
         8          4          0          0         96         68   libspace.o
       138          0          0          0          0         80   lludiv10.o
        40          6          0          0          0         84   noretval__2sprintf.o
         8          4          0          0          0         68   rt_locale_intlibspace.o
         2          0          0          0          0          0   rtexit.o
        10          0          0          0          0          0   rtexit2.o
       128          0          0          0          0         68   strcmpv7m.o
        74          0          0          0          0         80   sys_stackheap_outer.o
         2          0          0          0          0         68   use_no_semi.o
         2          0          0          0          0         68   use_no_semi_2.o
        98          4          0          0          0         92   d2f.o
       804         16          0          0          0        272   daddsub_clz.o
        24          0          0          0          0         68   dcmpi.o
       688        140          0          0          0        208   ddiv.o
        90          4          0          0          0         92   dfixu.o
        46          0          0          0          0         68   dflt_clz.o
       120          4          0          0          0         92   dleqf.o
       340         12          0          0          0        104   dmul.o
       156          4          0          0          0         92   dnaninf.o
        12          0          0          0          0         68   dretinf.o
       108          0          0          0          0         80   drleqf.o
        86          4          0          0          0         84   f2d.o
       430          8          0          0          0        168   faddsub_clz.o
        24          0          0          0          0         68   fcmpi.o
       388         76          0          0          0         96   fdiv.o
        62          4          0          0          0         84   ffixu.o
        38          0          0          0          0         68   fflt_clz.o
       104          4          0          0          0         84   fleqf.o
       258          4          0          0          0         84   fmul.o
       140          4          0          0          0         84   fnaninf.o
        10          0          0          0          0         68   fretinf.o
        98          0          0          0          0         68   frleqf.o
         4          0          0          0          0         68   printf1.o
         0          0          0          0          0          0   usenofp.o
        40          0          0          0          0         68   fpclassify.o

    ----------------------------------------------------------------------
      8542        474        176          0        100       4668   Library Totals
        20          0          0          0          4          0   (incl. Padding)

    ----------------------------------------------------------------------

      Code (inc. data)   RO Data    RW Data    ZI Data      Debug   Library Name

      4354        186        176          0         96       2340   c_w.l
      4128        288          0          0          0       2260   fz_ws.l
        40          0          0          0          0         68   m_ws.l

    ----------------------------------------------------------------------
      8542        474        176          0        100       4668   Library Totals

    ----------------------------------------------------------------------

==============================================================================


      Code (inc. data)   RO Data    RW Data    ZI Data      Debug   

     15930       1046       6594       5832       3264     306307   Grand Totals
     15930       1046       6594        724       3264     306307   ELF Image Totals (compressed)
     15930       1046       6594        724          0          0   ROM Totals

==============================================================================

    Total RO  Size (Code + RO Data)                22524 (  22.00kB)
    Total RW  Size (RW Data + ZI Data)              9096 (   8.88kB)
    Total ROM Size (Code + RO Data + RW Data)      23248 (  22.70kB)

==============================================================================

